:100000000C94DC030C94F9030C94F9030C94F9039D
:100010000C94F9030C94F9030C94F9030C94F90370
:100020000C94F9030C94F9030C9458150C942D14AA
:100030000C9471220C94F9030C94F9030C94F903B9
:100040000C94F9030C94F9030C94F9030C94F90340
:100050000C94F9030C94D3210C94F9030C94F90338
:100060000C94F9030C94F9030C94F9030C94F90320
:100070000C94F9030C94F9030C94F9030C94F90310
:100080000C94F9030C94F9030C94F9030C94F90300
:100090000C94F9030C94F9030C94F9030C94F903F0
:1000A0000C94F9030C94F9030C94F903EB06ED0698
:1000B000F806EF06F106F306F506F706FA06FC0663
:1000C000FE060907000702070407060708070B07D3
:1000D000BF08BF08FD08FD08390959092B0B840B1F
:1000E0009B09840B880A880A950A950A950A950A3D
:1000F000950A950A950A950A950A950A950A950A08
:10010000950A950A950A950AA60ACE0AD30ADA0A2A
:10011000F20A730D760D790D7C0D7F0D820D850D24
:100120004F1054105E10521057105C105A10A2124B
:10013000BC12E8122913741377137C137F138213F4
:10014000851388138B138E139113941397139A139B
:100150009F13A413A713AA13E5270C28AC290C2876
:10016000AC2954287728AC29752988293F2A3F2AA9
:10017000522A522A482A522A522A522A3F2A3F2ACF
:100180004D2A522A522A4D2A2E002B002900E10026
:10019000354100001E00140004001D6134004D6A4A
:1001A0001F001A0016001B00E1042A0020000800AE
:1001B0000700060050002C0021001500090019005E
:1001C0004F004A00220017000A0005000000656485
:1001D000500001530000000F0000E3004F000154E5
:1001E000000000070000E20023001C000B001100CB
:1001F00000002961240018000D00100052004B007F
:1002000025000C000E0036005100280026001200C8
:100210000F0037002F002B002700130033423871E6
:1002200030004E002D0031003468E500015100001F
:100230002900010001000100010000003A001E0237
:10024000200222020100FD5C3B001F02210223026A
:100250000100C95C3C002F0226022F000100CA5C8D
:100260003D003002270230000100FC5C3E003102FC
:10027000350035020000C35C0100010000004C00A5
:100280000000FB5C0100010000002A000000C25CCD
:100290003F0056002D0224020000F85C40002400BC
:1002A00021001E00010001004100250022001F0066
:1002B0003700C55C42002600230020002700C65CF2
:1002C000430025022E0231002E00010044004500AB
:1002D0000100010001000000010001000100010017
:1002E0000100000001000100010001000100010007
:1002F00001000100F2000100010001000100F00016
:10030000F1000100F400010001000100F300010010
:10031000F5000100010001000100010000000100E2
:1003200001000100000001000000010001000100C7
:1003300000000100000001000100010001000100B7
:100340000000010001000100F4000100A90001000B
:1003500001000100F600AC00AA00B6000100010097
:10036000F500AB00A8000100010001000100010040
:100370000100010001000100AE00010001000000C9
:10038000A8C4E2A8C4E2A8C4E2A8C4E2A8C4E2A83F
:10039000C4E2A8C4E2A8C4E2A8C4E2A8C4E2A8C413
:1003A000E2A8C4E2A8C4E2A8C4E2A8C4E2A8C4E2E5
:1003B000A8C4E2A8C4E2A8C4E2A8C4E2A8C4E2A80F
:1003C000C4E2A8C4E2A8C4E2A8C4E2A8C4E2A8C4E3
:1003D000E2A8C4E2A8C4E2A8C4E2A8C4E2A8C4E2B5
:1003E000A8C4E2A8C4E2A8C4E2A8C4E2A8C4E2A8DF
:1003F000C4E2A8C4E2A8C4E2A8C4E2A8C4E2A8C4B3
:10040000E2A8C4E2A8C4E2A8C4E2A8C4E2A8C4E284
:1004100000DCEC00DCEC00DCEC00DCEC00DCEC00F4
:10042000DCEC00DCEC00DCEC00DCEC00DCEC00DC08
:10043000EC00DCEC00DCEC00DCEC00DCEC00DCECE8
:1004400000DCEC00DCEC00DCEC00DCEC00DCEC00C4
:10045000DCEC00DCEC00DCEC00DCEC00DCEC00DCD8
:10046000EC00DCEC00DCEC00DCEC00DCEC00DCECB8
:1004700000DCEC00DCEC00DCEC00DCEC00DCEC0094
:10048000DCEC00DCEC00DCEC00DCEC00DCEC00DCA8
:10049000EC00DCEC00DCEC00DCEC00DCEC00DCEC88
:1004A00035E4D735E4D735E4D735E4D735E4D73567
:1004B000E4D735E4D735E4D735E4D735E4D735E4A8
:1004C000D735E4D735E4D735E4D735E4D735E4D7A5
:1004D00035E4D735E4D735E4D735E4D735E4D73537
:1004E000E4D735E4D735E4D735E4D735E4D735E478
:1004F000D735E4D735E4D735E4D735E4D735E4D775
:1005000035E4D735E4D735E4D735E4D735E4D73506
:10051000E4D735E4D735E4D735E4D735E4D735E447
:10052000D735E4D735E4D735E4D735E4D735E4D744
:1005300000000000000000000000010101010101B5
:100540000101010202020202020202030303030389
:100550000303040404040405050505050606060650
:100560000607070707080808080909090A0A0A0B05
:100570000B0B0C0C0C0D0D0D0E0E0E0F0F101010A2
:100580001111121213131414151516161717181823
:1005900019191A1A1B1C1C1D1D1E1F1F2021212288
:1005A000232324252526272828292A2B2C2C2D2EC9
:1005B0002F30313132333435363738393A3B3C3DE0
:1005C0003E3F404142434445464748494B4C4D4ECF
:1005D0004F50525354555758595A5C5D5E60616391
:1005E000646567686A6B6C6E6F7172747677797A1E
:1005F0007C7D7F8182848687898B8D8E9092949575
:1006000097999B9D9FA1A2A4A6A8AAACAEB0B2B494
:10061000B6B9BBBDBFC1C3C5C8CACCCED0D3D5D770
:10062000DADCDEE1E3E6E8EAEDEFF2F4F7F9FCFF0D
:1006300005010902A10185020901A10005091901AD
:1006400029051500250195057501810295017503A0
:1006500081010501093009311581257F9502750851
:10066000810609381581257F950175088106050CDD
:100670000A38021581257F950175088106C0C005DD
:10068000010980A10185031601002603001A8100DB
:100690002A8300751095018100C0050C0901A10194
:1006A0008504160100269C021A01002A9C0275107E
:1006B00095018100C005010906A1018505050719FD
:1006C000E029E71500250195087501810205081943
:1006D00001290595057501910295017503910105A3
:1006E00007190029EF1500250195F075018102C059
:1006F00005010906A101050719E029E715002501F3
:100700009508750181029501750881010508190197
:10071000290595057501910295017503910105075C
:10072000190029FF150026FF00950675088100C0F5
:1007300009023B00020100A0FA09040000010301C4
:100740000100092111010001224000070581030871
:10075000000A090401000103000000092111010041
:100760000122C0000705820320000A1201100100C7
:10077000000008EDFE07130100010203010403302D
:1007800000000016034500720067006F0044006F10
:10079000007800200045005A000000160345007252
:1007A0000067006F0044006F007800200045005A89
:1007B000000000040309040011241FBECFEFDAE09B
:1007C000DEBFCDBF13E0A0E0B1E0EAE4F4E602C092
:1007D00005900D92AE36B107D9F726E0AEE6B3E04C
:1007E00001C01D92A331B207E1F70E94A4160C9438
:1007F00023320C9400008F929F92AF92BF92CF92BF
:10080000DF92EF92FF920F931F93CF93DF93CDB7B9
:10081000DEB728970FB6F894DEBF0FBECDBFFC0140
:10082000F080118183819481892B11F40C94670CE1
:100830001F3F29F40FEFF01611F40C94670C6F01B1
:1008400085E0DE01119601900D928A95E1F7F6019F
:10085000228189819A81222349F00E941224082F43
:10086000682F89819A810E948B2403C00E945E2494
:10087000082F26E0129FF001112434E5039FE00DBC
:10088000F11D1124EF0DF11DEE0FFF1FE857FE4F74
:1008900005911491F6018281073FFCE51F0709F0DD
:1008A00040C0882309F4A7C09091820381E0890F9A
:1008B0008770987F853020F4892B8093820302C053
:1008C000909382038091820387702FEF829FC001F3
:1008D00011249595879595958795992790938900EB
:1008E0008093880090938B0080938A0090938D0072
:1008F00080938C0040918203509183036091840324
:10090000709185038FE090E00E941A2F6091C005DE
:100910007091C1058091C2059091C3050E94351068
:100920006AC00A3F3CE5130709F49FC058F4083F2A
:10093000ECE51E0709F4B6C088F5023C2CE5120769
:1009400061F059C00C3F3CE51307D1F188F10D3F30
:10095000ECE51E0709F442C04EC0882309F4B7C76E
:1009600080910B06882319F010920B0603C08FEFBD
:1009700080930B0628960FB6F894DEBF0FBECDBF4E
:10098000DF91CF911F910F91FF90EF90DF90CF906B
:10099000BF90AF909F908F900C94B31D882309F463
:1009A00096C790916E0381E0892780936E038FC76D
:1009B000882309F48CC781E00E94BB1D8CEA15C016
:1009C000882309F484C781E00E94BB1D86E58093DB
:1009D00009068FEF80930A0680E8CACF882309F4BE
:1009E00076C781E00E94BB1D8BE1809309068FEFE3
:1009F00080930A06BDCFF6018281882381F0033EF1
:100A0000FCE51F0709F494C008F087C0013E3CE5EF
:100A1000130709F07BC010927E030E94251F17FF69
:100A2000FBC0F6018281811189C00A3CFCE51F07E9
:100A300009F447C108F453C1013D9CE5190709F4C5
:100A4000DEC250F1053DFCE51F0709F413C308F4AD
:100A500009C70D3D9CE5190709F41DC30E3DECE5E2
:100A60001E0709F021C3F6018281882309F42FC7EC
:100A700028960FB6F894DEBF0FBECDBFDF91CF91A1
:100A80001F910F91FF90EF90DF90CF90BF90AF90AC
:100A90009F908F900C9408230D3CFCE51F0739F4C0
:100AA000F6018281882309F412C781E01BC00E3C45
:100AB0002CE5120708F4B3C20F3C9CE5190709F4B2
:100AC000B1C608F0BFC6F6018281882309F4FFC6CB
:100AD0008091080686958695825C8F73833008F432
:100AE00038C182E028960FB6F894DEBF0FBECDBFA6
:100AF000DF91CF911F910F91FF90EF90DF90CF90FA
:100B0000BF90AF909F908F900C94BB1D023E8CE5E0
:100B1000180709F084CF81E00EC0043E9CE5190758
:100B200049F0053EECE51E0709F079CF84E003C0EB
:100B300082E001C083E080937E036FCF8091D10576
:100B400080936F031092D10580917E03813071F004
:100B500048F08230D1F08430F1F486EE0E94CA2C45
:100B600088E117C082EE0E94DD2C15C08AE89CE067
:100B70000E94BD2688E10E94DD2C88E10E94632C42
:100B80008AE79CE00E94BD2606C082EE0E94DD2C12
:100B900087E50E94CA2C8FE39CE90197F1F700C01A
:100BA00000007801E894F7F85CE0A52EB12CC701AD
:100BB0000A2C02C0969587950A94E2F7282F2F7089
:100BC00041F0822F90E02A3010F44D9604C0069731
:100BD00002C087E290E00E94CA2C94E0A91AB108F2
:100BE000ECEFAE16EFEFBE0611F780917E03813079
:100BF00039F040F0823031F0843051F488E206C0A0
:100C00008CE204C082EE0E94632C02C00E94CA2CB7
:100C100080916F038093D105003FFCE51F07B1F180
:100C200080F4083D3CE51307C9F0093D8CE5180741
:100C3000C9F1073D9CE51907C1F526E241EE61EED9
:100C400010C0023FECE51E0749F120F1033F2CE5FF
:100C5000120759F527E245EE66EE03C027E245EE9E
:100C600065EEC60128960FB6F894DEBF0FBECDBF65
:100C7000DF91CF911F910F91FF90EF90DF90CF9078
:100C8000BF90AF909F908F900C944E1F26E241EE44
:100C900060EEE7CF27E245EE64EEE3CF26E241EED9
:100CA00062EEDFCF28E241E0DBCFF60182818823CC
:100CB00019F010927003B9CE0A3CFCE51F0709F049
:100CC00072C1F6018281882309F401C620910B06C6
:100CD00030E1231B08F420E020930B064BCE033CAD
:100CE0003CE51307E9F4F6018281882309F4EFC596
:100CF0008091D105827269F128960FB6F894DEBF13
:100D00000FBECDBFDF91CF911F910F91FF90EF905C
:100D1000DF90CF90BF90AF909F908F900C94C71DA5
:100D2000043C8CE5180748F1063C9CE5190709F4DA
:100D30004AC108F039C5043CFCE51F0709F04EC163
:100D4000F6018281882309F4C2C58091D10582729F
:100D500099F228960FB6F894DEBF0FBECDBFDF9193
:100D6000CF911F910F91FF90EF90DF90CF90BF90A8
:100D7000AF909F908F900C94DD1D05319CE5190775
:100D800008F0C6C00230ECE51E0708F469C0F601A1
:100D90008281882309F493C10E94FD22811102C03F
:100DA0000E94082384E090E00E94E42E90E090935B
:100DB000950380939403F801E350FC45E231F1057B
:100DC00030F4EA5AFF4F809194030C94F0308091F4
:100DD0009403816027C0826025C0846023C0806145
:100DE00021C080621FC080641DC080681BC08460F9
:100DF000886018C08E7F16C08D7F14C08B7F12C094
:100E00008F7E10C08F7D0EC08F7B0CC08F770AC085
:100E10008B7F877F07C087FB222720F991E09227ED
:100E200090FB87F9809394036091940384E090E0B1
:100E30000E94082F1092D10528960FB6F894DEBFB5
:100E40000FBECDBFDF91CF911F910F91FF90EF901B
:100E5000DF90CF90BF90AF909F908F900C943B2CE1
:100E60000115FCE51F0709F044C0F60182818823C3
:100E700009F42DC51092D1050E943B2CFFEF04E32D
:100E80001CE0F15000401040E1F700C00000F89471
:100E900081E08093E00080E28093D8001092C90046
:100EA0008FE19EE40197F1F700C000001DBA109297
:100EB00068001CBC10BE1FBA10927A0010926E001F
:100EC00010926F0010927100109272001092C9007F
:100ED0001092BC0014B817B81AB81DB810BA109206
:100EE000BC0015B818B81BB81EB811BA0C94003F56
:100EF000EEC401301C4509F0E2C0F601828188236E
:100F000009F4E5C48091B10381608093B103DFC42B
:100F100006313CE51307A9F59091D105F6018281D0
:100F2000882381F09A7A81E009F480E0809371034C
:100F3000811102C069E201C065E381E395E00E948E
:100F4000C5220BC080917103811102C069E201C00A
:100F500065E381E395E00E949A2228960FB6F89403
:100F6000DEBF0FBECDBFDF91CF911F910F91FF90DC
:100F7000EF90DF90CF90BF90AF909F908F900C94A8
:100F8000CC23023C1C4509F09AC0F60182818823DB
:100F900009F49DC49091080681E089278093080692
:100FA00010920801E7CC0B3C2CE5120720F5033C1E
:100FB0003CE5130709F497CE08F490C0063C9CE585
:100FC000190709F0E3C3F6018281882309F47FC47D
:100FD00080910906885080930906CCCC053C1C45BD
:100FE00009F06DC0F6018281882309F470C48091F4
:100FF0000906885FF0CF013D9CE5190791F5F601E0
:101000008281882309F463C48091080686958695B9
:101010008F5C8F73853008F49CCE8FE063CD0B3CE2
:101020003CE5130761F4F6018281882309F44FC47B
:1010300020910C0630E1230F08F42FEF0FC00C3C79
:101040001C4509F03CC0F6018281882309F43FC4A5
:1010500020910C0630E1231B08F420E020930C06BD
:1010600089CC023DECE51E0708F4CBC3053DFCE549
:101070001F0739F4F6018281882309F428C483E22A
:1010800031CD063D2CE5120708F4ECC30D3D9CE57F
:10109000190709F012C4F6018281882309F417C4E4
:1010A00082E08093C00313C40C3D1C4541F4F6015B
:1010B0008281882309F40BC41092C00308C4F6018E
:1010C0008281008111818823F9F0C8010E941224D5
:1010D000F82E682FC8010E948B241AC005319CE5A8
:1010E000190708F049C30230ECE51E0708F04FCE9F
:1010F0000115FCE51F0709F4B8CE01301C4509F4C1
:10110000FCCEF60100811181C8010E945E24F82EF8
:10111000B8018F2D0E94D80D182F382FF601258188
:1011200022952F70028101111092C6058091C4058D
:101130008770A9F0002399F080E2810F883078F061
:1011400082E02F8338879E830E94EC248091C4051F
:101150008770EE24E3942F8138859E818111E12CE4
:10116000A92EA2944FE0A422B12CFCE0AF16B1044A
:1011700008F0CAC2F501E859FF4F0C94F030892FEE
:10118000807F9F70F92E882319F0F29480EFF82267
:101190000023B9F0FF2009F448C280E2810F8830B3
:1011A00010F0311106C09091D105F92AF092D105C5
:1011B00005C09091C605F92AF092C6050E94CC237D
:1011C00034C2812F38870E94632C3885FF2009F4B0
:1011D0009BC2105EF094183010F0311106C090914F
:1011E000D105F922F092D10505C09091C605F922EA
:1011F000F092C6050E94CC2387C2492F407F892FD9
:101200008F70403211F08295807F332319F0313096
:10121000E9F025C0002381F03091C705222351F069
:10122000213041F4982F932B391709F46DC2909314
:10123000C7056AC2832B81C1222319F0213009F42A
:1012400063C28E830E94C6238E817DC1002321F05C
:10125000223008F059C271C1211156C274C1002355
:1012600021F0222309F469C1E0C1222309F46BC1F2
:10127000EEC1292F26952695237030E021153105E2
:1012800021F02130310559F03FC2002319F0812FA0
:10129000937002C080E090E00E948F1D43C2002343
:1012A00019F0812F937002C080E090E00E94791DB8
:1012B00039C20023F9F0153F51F0163F71F0143F89
:1012C000A9F4809172039091730381600BC08091A7
:1012D000720390917303826005C0809172039091B4
:1012E000730384609093730380937203812F0E9431
:1012F0006B211EC0153F51F0163F71F0143FA9F449
:1013000080917203909173038E7F0BC08091720362
:10131000909173038D7F05C0809172039091730348
:101320008B7F9093730380937203812F0E94A1207F
:101330000E945B22F7C1892F837009F071C00111EF
:10134000EFC1812F829586958770880F880F412F76
:101350004F7050E060E070E04A015B01082E04C06D
:10136000880C991CAA1CBB1C0A94D2F714FF12C04B
:101370000FE010E020E030E004C0000F111F221F3A
:10138000331F8A95D2F7B901A80140955095609511
:10139000709503C040E050E0BA0196959695937021
:1013A000892F90E082309105E9F08330910579F141
:1013B0000091C8051091C9052091CA053091CB054F
:1013C000019759F0482959296A297B29CB01BA018B
:1013D000602371238223932320C0802A912AA22A8A
:1013E000B32A15C0482959296A297B298091C80543
:1013F0009091C905A091CA05B091CB058A019B01C6
:10140000082719272A273B27C901B80106C0CB01A5
:10141000BA01682979298A299B290E94262580C139
:10142000002319F0892F817001C08695882309F463
:1014300077C1812F829586958770880F880F412FFD
:101440004F7050E060E070E04A015B01082E04C07C
:10145000880C991CAA1CBB1C0A94D2F714FF12C05A
:101460000FE010E020E030E004C0000F111F221F49
:10147000331F8A95D2F7B901A80140955095609520
:10148000709503C040E050E0BA0196959695937030
:10149000892F90E082309105E9F08330910579F150
:1014A0000091C0051091C1052091C2053091C3057E
:1014B000019759F0482959296A297B29CB01BA019A
:1014C000602371238223932320C0802A912AA22A99
:1014D000B32A15C0482959296A297B298091C0055A
:1014E0009091C105A091C205B091C3058A019B01ED
:1014F000082719272A273B27C901B80106C0CB01B5
:10150000BA01682979298A299B290E94BB2408C12C
:10151000412F50E0FA01E05EF109E531F10508F0F4
:101520007FC0EC58FF4F0C94F0301F70892F8F71E3
:10153000002331F00E940525812F0E94592CE4C020
:101540000E94C724812F0E944E2CDEC0002311F17F
:101550002111DAC0292F2F7181E090E0A0E0B0E0E6
:10156000AC01BD0104C0440F551F661F771F2A95AB
:10157000D2F78091C0059091C105A091C205B091AC
:10158000C3058A019B01082719272A273B27C90180
:10159000B80125C0223008F0B7C0DCCF002329F005
:1015A000892F8F712EC00023D9F3892F8F710E944C
:1015B000C724AAC0002381F0292F2F7181E090E079
:1015C000A0E0B0E0BC01CD0104C0660F771F881F0A
:1015D000991F2A95D2F703C060E070E0CB010E940A
:1015E000BB2492C0002381F0192F1F71812F0E940C
:1015F000052528E0129FC001112483608093C40553
:10160000812F0E94052580C081E02F830E94EC2459
:101610002F81223008F478C082E00E94EC2474C04C
:10162000002339F0222309F4BBCF812F0E94DD2C47
:101630006BC0222309F4B9CF193349F43FEF87EE89
:1016400093E0315080409040E1F700C00000812FCE
:101650000E94632C59C0323FB1F028F4303F49F06A
:10166000313FF9F028C0343FB9F058F0353F71F000
:1016700022C0002309F456C090910E0681E089270C
:1016800008C081E0082700930E064CC001114AC033
:1016900081E080930E0646C0011144C010920E06F0
:1016A00041C0002329F080910D06882329F329C029
:1016B000222311F337C080910D062223C1F0882325
:1016C00041F090910E0681E0892780930E061092DA
:1016D0000D06812F002319F00E94DD2C23C00E94EB
:1016E000632C86E0F60111928A95E9F71BC08823E6
:1016F000C9F0011117C090910E0681E089278093EF
:101700000E0610920D060EC0F8E0AF16B10441F0BF
:101710004CF01AE0A11AB10822E0A216B10410F4AC
:101720000E94A51DEE2009F4D2C08091C40580FD61
:10173000CEC0F60112828595859585950E94052576
:10174000C6010E94FB038091C4058595859585950A
:1017500028960FB6F894DEBF0FBECDBFDF91CF91B4
:101760001F910F91FF90EF90DF90CF90BF90AF90BF
:101770009F908F900C94C72406313CE5130709F421
:10178000CBCB023C1C4509F400CCBBCC073CECE5C0
:101790001E0750F4043CFCE51F0709F4D1CA053CC0
:1017A0001C4509F41FCCADCC083C3CE5130771F493
:1017B000F6018281882309F48AC020910A0630E16B
:1017C000231B08F420E020930A06D4C8093C1C45DA
:1017D00060F4F6018281882309F479C020910A0619
:1017E00030E1230F08F42FEFEECFF601828188233A
:1017F00009F46DC020910B0630E1230F08F42FEFA0
:101800006BCA0D3CFCE51F0709F44AC908F054C92E
:101810000B3C3CE5130709F406CC0C3C1C4509F4D1
:1018200012CC6FCCF6018281882309F450C08091DC
:10183000080686958695865C8F73823008F489CA7F
:1018400086E050C9F6018281882309F440C0809166
:10185000080686958695895C8F73853008F479CA69
:1018600089E040C9033D3CE5130731F4F60182816C
:10187000882369F188E136C9043D1C4578F4F601F6
:101880008281882321F18091080686958695855D61
:101890008F73823008F45DCA85E124C9F601828124
:1018A0008823A9F08091080686958695895D8F73B7
:1018B000893008F44ECA89E115C90E3DECE51E07D2
:1018C00009F4D1C80C3D1C4509F01BCCF0CB28967F
:1018D0000FB6F894DEBF0FBECDBFDF91CF911F9141
:1018E0000F91FF90EF90DF90CF90BF90AF909F90BF
:1018F0008F900895282F277081E090E001C0880F15
:101900002A95EAF780959091C60589238093C605AC
:101910000C94CC23282F277081E090E001C0880F21
:101920002A95EAF79091C605892B8093C6050C94F9
:10193000CC233F924F925F926F927F928F929F92B1
:10194000AF92BF92CF92DF92EF92FF920F931F93CD
:10195000CF93DF9320E9289F7001299FF00C112479
:10196000C0E0D0E000E010E067018FEFC81AD80AAD
:10197000570182E0A80EB11CFE01EE0DFF1DE058DC
:10198000FC4F6491F601EC0FFD1FE058FC4F749181
:10199000F501EC0FFD1FE058FC4F8491611107C069
:1019A000711105C0811103C020E040E042C00E94D7
:1019B0008C1E962E372E882E60910B0670E080E0EC
:1019C00090E00E94CD2F20E030E04FE753E40E94EA
:1019D0002C2F2B013C01682D70E080E090E00E94EC
:1019E000CF2F9B01AC01C301B2010E945B300E946A
:1019F0009E2F862E692D70E080E090E00E94CF2F10
:101A00009B01AC01C301B2010E945B300E949E2F7A
:101A1000962E632D70E080E090E00E94CF2F9B0116
:101A2000AC01C301B2010E945B300E949E2F282DA1
:101A3000492DC8010E94B11D0F5F1F4F2396C03969
:101A4000D10509F099CFDF91CF911F910F91FF90B0
:101A5000EF90DF90CF90BF90AF909F908F907F904E
:101A60006F905F904F903F900895CF93E82F87300D
:101A700080F58091090190910A01892B09F047C0F6
:101A8000CE2F64E670E080E40E94FD2D90930A0161
:101A900080930901892BD1F464E670E082E10E9411
:101AA000542E90930A0180930901892B79F481E0E7
:101AB00090E001C0880FCA95EAF764E670E080956F
:101AC0000E94542E90930A0180930901CF910C94A7
:101AD000D02E90E0FC013797E730F105C0F4E757CE
:101AE000FF4F0C94F030209A289811C0219A299821
:101AF0000EC0229A2A980BC0239A2B9808C0529A9B
:101B00005A9805C0539A5B9802C03E9A4698CF9166
:101B10000895CF93873008F03FC0809109019091DC
:101B20000A01892B09F041C064E670E080E40E945C
:101B3000FD2D90930A0180930901892B11F0C0E0DB
:101B400027C064E670E083E10E94542E90930A015E
:101B500080930901892B99F764E670E081E40E9483
:101B6000FD2D90930A0180930901892B41F784E6AA
:101B700090E00E94842E97FF05C090930A01809305
:101B80000901DDCFC82FC09510920A0110920901FA
:101B90000E94D02E8C2F0AC09FB18FB1807F869576
:101BA00086959370892B809501C080E0CF91089530
:101BB000CF93DF9326E0729FF001112434E5839FD9
:101BC000E00DF11D1124E60FF11DEE0FFF1FE85788
:101BD000FE4FC591D491CE01C238D10549F1B0F480
:101BE000C133D10509F464C048F4C932D10509F400
:101BF00058C0CA32D10509F462C068C0C533D105E6
:101C000009F448C0C933D10599F060C0C33ED1057D
:101C100041F138F4C03ED10591F0C23ED105B1F09A
:101C200055C0C63ED10521F1C73ED10561F14EC078
:101C30002091940320FD14C221FD12C213C22091F1
:101C4000940320FF0FC289E390E00CC2209194031B
:101C500022FF08C28091940384FDB4C183EE90E01A
:101C600001C28091940382FFF5CF82EE90E0FAC129
:101C70002091940323FFF6C18091940384FDA2C1B7
:101C800087EE90E0EFC18091940383FFF5CF86EE5D
:101C900090E0E8C12091940325FFE4C189E290E03F
:101CA000E1C12091940325FFDDC185E390E0DAC115
:101CB0002091940326FFD6C18AE290E0D3C12091FF
:101CC000940326FFCFC181E390E0CCC1C11520E58C
:101CD000D20708F047C0C11530E4D30708F034C17B
:101CE000C83ED10518F5C03ED10508F0BBC1C83AC1
:101CF000D10570F4C53AD10508F0B0C0C130D105A6
:101D000009F4B0C108F45EC1249708F45BC1AAC10C
:101D1000CF3BD10508F4ADC0C03CD10508F452C199
:101D2000FE01EE0FFF1FE055FC4F02C1C11520E27E
:101D3000D20760F4C11531E0D30708F093C1C03F6A
:101D4000D10508F43FC1CE0190658CC1C11580E377
:101D5000D80708F0F0C0FE01FF70EE0FFF1FE05D36
:101D6000FA4FE6C0C11595E5D90708F044C0C11582
:101D700024E5D20708F000C1C11532E5D30710F5FC
:101D8000C11581E5D80708F0E3C02C2F237081E04E
:101D900090E002C0880F991F2A95E2F79C689E0187
:101DA00074E0369527957A95E1F72370922BEC2F06
:101DB000EF70E695E69530E2E39FF00111248E2B5B
:101DC0009F2B50C18C2F86958695AE014370552769
:101DD000C115D34508F0C1C090E2899F900111243C
:101DE00081E090E002C0880F991F4A95E2F7822BAC
:101DF000932B9C6837C1C1152AE5D207A0F4C11501
:101E000039E5D30708F0C6C0C11586E5D80708F440
:101E1000B8C0C11598E5D90708F4D4C09C2F88270D
:101E2000806F906A1FC1C1152BE5D20708F4CAC0A4
:101E3000CE01C1153CE5D30708F4C1C09056811509
:101E4000904208F0BFC08D2F8F710E942B1FFE01A2
:101E5000FF27F0628F719F01382BAFC0C53AD105C3
:101E600009F4B3C0C63AD10509F0B2C082E890E4E3
:101E7000F9C0C83AD10509F4AEC0C93AD10509F490
:101E8000ADC0CA3AD10509F4ACC0CB3AD10509F4CA
:101E9000ABC0CC3AD10509F4AAC0CB3BD10509F4BB
:101EA000A9C0CC3BD10509F4A8C0CD3AD10509F4AD
:101EB000A7C0C03BD10509F4A6C0CE3AD10509F4AC
:101EC000A5C0CF3AD10509F4A4C0C13BD10509F49E
:101ED000A3C0C23BD10509F4A2C0C33BD10509F49C
:101EE000A1C0C43BD10509F4A0C0C53BD10509F48C
:101EF0009FC0C63BD10509F49EC0C73BD10509F47C
:101F00009DC0C83BD10509F49CC0C93BD10509F46B
:101F10009BC0CD3BD10509F49AC0CE3BD10509F455
:101F200099C0CA3BD10509F498C080E094E49AC0F6
:101F30008591949197C09E013327C901D3FF02C0B8
:101F4000986C90C0906C8EC0CE019F70906A8AC0D1
:101F50009C2F8827816F906A85C090E2899F9001AD
:101F6000112481E090E002C0880F991F4A95E2F7A2
:101F7000822B932B9A6876C09C2F8827846F906A57
:101F800071C08C2F0E942B1F8F7190E0982F882793
:101F9000906268C08C2F8F700E942B1FFE0194E00E
:101FA000F695E7959A95E1F7EF70F0E0FE2FEE27B2
:101FB000F06A8F70806E9F01282BC90153C099274A
:101FC000906650C080E090E04DC081E890E44AC047
:101FD00083E890E447C082EE94E444C089EE94E440
:101FE00041C08AEE94E43EC085EB94E43BC086EBAE
:101FF00094E438C083EB94E435C084EB94E432C0BD
:1020000087EB94E42FC08CEC94E42CC08DEC94E42A
:1020100029C083E895E426C08AE895E423C082E9D4
:1020200095E420C084E995E41DC081E296E41AC0DD
:1020300083E296E417C084E296E414C085E296E455
:1020400011C086E296E40EC087E296E40BC08FE6EC
:1020500094E408C080E794E405C08AE296E402C0F4
:1020600080EE90E0DF91CF910895CF92DF92EF92D2
:10207000FF926B017C010E94762356985E9825980A
:102080002D9826982E9827982F9890E0FC0131974C
:10209000E730F105A8F4E057FF4F0C94F030259A93
:1020A0002D9A0EC0259A2D9A269A2E9A09C0259A05
:1020B0002D9A04C0259A2D9A269A2E9A279A2F9AFD
:1020C000C701B601FF90EF90DF90CF90089580E2B6
:1020D00090E090930A018093090180917B03811124
:1020E0000EC00E94F72D81E080937B032FEF83EDDC
:1020F00090E3215080409040E1F700C0000064E68A
:1021000070E080E40E94FD2D90930A018093090104
:10211000892B09F04EC064E670E080E00E94542EE6
:1021200090930A0180930901892B09F042C064E66B
:1021300070E080E00E94542E90930A018093090180
:10214000892BB9F564E670E08FE30E94542E9093DA
:102150000A0180930901892B61F50E94D02E64E663
:1021600070E080E40E94FD2D90930A0180930901A4
:10217000892BF9F464E670E08CE00E94542E909371
:102180000A0180930901892BA1F464E670E080E0E4
:102190000E94542E90930A0180930901892B49F4DF
:1021A00064E670E08FE30E94542E90930A018093BE
:1021B00009010E94D02E80910901089556985E98D9
:1021C00025982D9826982E9827982F988FEF90E095
:1021D000909389008093880090938B0080938A006D
:1021E00090938D0080938C00259A2D9A2FEF80E795
:1021F00092E0215080409040E1F700C00000269A14
:102200002E9A2FEF80E792E0215080409040E1F736
:1022100000C00000279A2F9A2FEF80E792E021500C
:1022200080409040E1F700C0000025982D982FEFE6
:1022300080E792E0215080409040E1F700C000002C
:1022400026982E982FEF80E792E021508040904012
:10225000E1F700C0000027982F9856985E982598BF
:102260002D9826982E9827982F98089584B1807FCE
:1022700084B985B1807F85B98AB1837F8AB98BB1F2
:10228000837F8BB93E984698089580B38C7080BB4D
:1022900081B3836F81BB08957F928F929F92AF929B
:1022A000BF92CF92DF92EF92FF920F931F93CF9343
:1022B000DF931F92CDB7DEB78091090190910A019B
:1022C000892B91F080917A038F5F80937A0381113B
:1022D0000BC00E94671090E090930A01809309015F
:1022E000892B11F40E94DE1096E8E92E93E0F92E76
:1022F0002DE8C22E23E0D22E5701912C712C07E03D
:10230000090D892D0E94350D802F0E94350D892DD4
:102310000E94890DD5019C91981719F08C9311E0BA
:1023200001C010E0802F0E94890DF601908198175E
:1023300019F0808381E001C080E0182B712A0E948F
:1023400036119394FFEFAF1ABF0A2FEFC21AD20AC9
:1023500037E09312D4CF0E944F226AEF70E00E94C0
:10236000C830BC01482F809175038823D1F11092A9
:102370007503E0917C03F0917D03DF011E9690E0F0
:102380008BEF0AEF10E020812B3F99F0C22ED12C69
:10239000421720F09B012C193D0905C098012C190A
:1023A0003D09260F371F2F30310514F0808301C0FF
:1023B00091E03196EA17FB0731F79093750371109E
:1023C00002C0911110C01092740360917C0370914F
:1023D0007D0390917503E9E9F3E080E03EE03E0F74
:1023E00032C07110F0CF809174038111ECCF6091F5
:1023F00076037091770380917803909179030E941E
:10240000F9212FB7F894C090CC05D090CD05E0907D
:10241000CE05F090CF052FBFC0927603D092770300
:10242000E0927803F092790380900406909005067C
:10243000A0900606B0900706AFEF8A169A06AA0685
:10244000BA06D1F43AC0D7012D917D0150815217BF
:1024500049F0DB015C915B3F21F44C93208391E0D8
:1024600001C081E06F5F7F4F31963E13ECCF9093B8
:10247000750380937403BBCFAB01BC01662777273C
:102480008A019B0100951095209530950815190536
:102490002A053B0520F48FEF9FEFDC0106C0DB012E
:1024A000CA01880D991DAA1DBB1D80930406909337
:1024B0000506A0930606B093070620910806822F12
:1024C000837021F0122F1695169501C010E08091AF
:1024D00008018130A1F038F0823009F452C1833014
:1024E00009F45AC16AC110921601C0920006D09236
:1024F0000106E0920206F092030681E04AC1809153
:10250000070118130EC0237030E08091060190E09F
:1025100051E040E02817390709F450E0252F342F07
:1025200002C021E030E0822F817080931801812F5A
:1025300090E08531910508F012C1FC01E956FF4F8A
:102540000C94F03090911601232B09F408C1F92E58
:10255000FF0CFF0CF90E05E00F0D013308F000E34E
:10256000F01608F0BDC020E040E060E08F2D90E064
:102570000E94B11DF394F4CF90911601D92EDD0C79
:10258000DD0CD90E05E00D0D013308F000E360917C
:10259000090670910A0680910B060E948C1EF62E89
:1025A000E82ED01608F09CC0ED2DF0E0DF01A35C12
:1025B000BC4F8C9190911701982341F02E2D4F2DF7
:1025C000672FCF0179830E94B11D7981D394E9CF20
:1025D00080911601B82EBB0CBB0CB80E35E03B0D3C
:1025E000313308F030E3D0900A06C0900B062091FA
:1025F0000C0600E4029F012D1124B31628F5EB2CE4
:10260000F12CF701E35CFC4F808190911701982336
:10261000C9F0F701EE0FFF1FE252FD4F9081929536
:102620009F7060910906099F600D11247D2D8C2DEE
:1026300039830E948C1E462F282F672FC7010E94C6
:10264000B11D3981B394D9CF81E0303308F488C00B
:1026500086C080911601D82EDD0CDD0CD80E05E069
:102660000D0D013308F000E3F090090670910A06A1
:10267000E0900B0680910C06682F6695669566952E
:10268000809100069091010679830E94811E0E942C
:10269000FF1D8058982F97FD9195990F292F3E2D5A
:1026A000239F212D11246F2D7981822F0E948C1E52
:1026B000F62EE82ED016A0F4ED2DF0E0DF01A35C9D
:1026C000BC4F8C9190911701982341F02E2D4F2DE6
:1026D000672FCF0179830E94B11D7981D394EACF0E
:1026E00081E00033E8F13BC08EE39AE102C082E171
:1026F0009AE10E94732634C087E19BE11DC088EFF8
:102700009AE11AC08DED9AE11CC082EC9AE119C0E1
:1027100080E19AE1EECF87E09AE1EBCF8EEF99E18D
:10272000E8CF83EE99E1E5CF84ED99E10AC082E537
:102730009EE102C081EB9AE10E94172611C08DE94B
:102740009AE10E949B250CC086EA99E105C084E7C6
:1027500099E102C086E399E10E943A2501C080E038
:10276000909116019F5F90931601811126C082E01F
:10277000809308018091180181111FC0112341F03D
:102780001CC0109307012370209306010E94671B51
:1027900083E08093080111C06091000670910106EA
:1027A00080910206909103060E94F9216A31710519
:1027B0008105910510F0109208018091C2038111EA
:1027C0001DC080916E03811119C06091C005709188
:1027D000C1058091C2059091C3050E947623813086
:1027E00049F028F0823051F482E090E005C080E0AA
:1027F00090E002C081E090E00E94990C872D0F903C
:10280000DF91CF911F910F91FF90EF90DF90CF90CC
:10281000BF90AF909F908F907F900895E8EDF0E08B
:1028200080818E7F80831092E2001092DA001092F5
:10283000E100A0EEB0E08C9181608C9380818F7775
:10284000808319BCA7EDB0E08C918E7F8C93808142
:102850008F7E80831092C10308951F920F920FB64E
:102860000F9211242F933F934F935F936F937F9316
:102870008F939F93AF93BF93CF93DF93EF93FF9388
:10288000C091E900CF708091EC00D82FD17080FD0D
:10289000D0E81092E9008091F000877F8093F000EB
:1028A00078940E94FF261092E9008091F0008860E1
:1028B0008093F000CD2BCF70C093E900FF91EF9192
:1028C000DF91CF91BF91AF919F918F917F916F9148
:1028D0005F914F913F912F910F900FBE0F901F90DE
:1028E00018952091E4003091E50095E64091EC00C8
:1028F000842F817040FF22C08091E80080FD1CC0C1
:102900008091F605882391F0853091F08091EB005D
:1029100085FD10C04091E4005091E5004217530737
:1029200029F39A01915011F784E0089582E0089507
:1029300083E0089581E0089580E008954091E800E3
:1029400042FFDECF08958091F80587FF11C0809186
:10295000E80082FD05C08091F6058111F8CF11C015
:102960008091E8008B770BC08091F605882349F0B1
:102970008091E80080FFF8CF8091E8008E77809307
:10298000E8000895982F973058F59093E90098172C
:1029900039F07091EC002091ED005091F00003C0EF
:1029A000242F762F50E021FF19C03091EB003E7F9D
:1029B0003093EB003091ED003D7F3093ED0030918E
:1029C000EB0031603093EB007093EC002093ED004E
:1029D0005093F0002091EE0027FF07C09F5FD3CFF8
:1029E0008F708093E90081E0089580E00895CF9290
:1029F000DF92EF92FF920F931F93CF93DF93C8ED77
:102A0000D0E088818F7E8883E7EDF0E0808181606F
:102A1000808384E082BF81E08093C10388818E7FC0
:102A2000888302EE10E0F80110821092DA0081EE45
:102A3000C82ED12CF601108288818F7788838881F7
:102A40008068888388818F7D888319BC1092F60501
:102A50001092F7051092F5051092F40590EEE92E0C
:102A6000F12CF70180818B7F80838881816088834E
:102A700042E060E080E00E94C214F60180818E7F17
:102A80008083F80180818160808380818860808379
:102A9000F70180818E7F8083888180618883DF91C8
:102AA000CF911F910F91FF90EF90DF90CF900895FD
:102AB0001F920F920FB60F9211242F933F934F93B3
:102AC0005F936F937F938F939F93AF93BF93EF9396
:102AD000FF938091E10082FF09C08091E20082FFB4
:102AE00005C08091E1008B7F8093E1008091DA0046
:102AF00080FF2AC08091D80080FF26C08091DA0034
:102B00008E7F8093DA008091D90080FF18C080E129
:102B100089BD82E189BD09B400FEFDCF81E08093CB
:102B2000F6058091C10381110FC00E940E140E940E
:102B3000F7148091E20084608093E20005C019BC24
:102B40001092F6051092C1038091E10080FF17C03A
:102B50008091E20080FF13C08091E2008E7F80931D
:102B6000E2008091E20080618093E2008091D800D1
:102B700080628093D80019BC85E08093F60580912F
:102B8000E10084FF36C08091E20084FF32C080E122
:102B900089BD82E189BD09B400FEFDCF8091D800D6
:102BA0008F7D8093D8008091E1008F7E8093E1003B
:102BB0008091E2008F7E8093E2008091E20081604C
:102BC0008093E2008091F705882311F084E007C02C
:102BD0008091E30087FD02C081E001C083E0809323
:102BE000F6051092D1050E943B2C0E94A51D109263
:102BF000C2038091E10083FF27C08091E20083FF40
:102C000023C08091E100877F8093E10082E0809380
:102C1000F6051092F7058091E1008E7F8093E10028
:102C20008091E2008E7F8093E2008091E2008061DB
:102C30008093E20042E060E080E00E94C214809154
:102C4000F00088608093F000FF91EF91BF91AF9109
:102C50009F918F917F916F915F914F913F912F91B4
:102C60000F900FBE0F901F9018952091FE05309188
:102C7000FF052617370748F06115710539F42091D3
:102C8000E8002E772093E80001C0B90140E061150B
:102C90007105A9F12091F605222309F443C02530DE
:102CA00009F442C02091E80023FD40C02091E800D3
:102CB00022FD32C02091E80020FFE9CF4091F300CF
:102CC0002091F20030E0342BFC01CF016115710539
:102CD00059F02830310540F481918093F100615022
:102CE00071092F5F3F4FF1CF41E02830310509F0E6
:102CF00040E02091E8002E772093E800C8CF4111F2
:102D0000C9CF0AC08091F605882361F0853061F053
:102D10008091E80083FD0AC08091E80082FFF2CF35
:102D200080E0089582E0089583E0089581E00895A9
:102D30008091C003811107C08091F605843011F0A5
:102D400081E0089582E00895CF93DF93CDB7DEB799
:102D50002A970FB6F894DEBF0FBECDBF84B7877F2A
:102D600084BF0FB6F894A895809160008861809325
:102D70006000109260000FBE80E8809361001092A6
:102D8000610085B7806885BF85B7806885BF0E9470
:102D90000E140E94F7148091E20084608093E20098
:102DA00078948091F6058823A1F01091E9001F70B6
:102DB0009091EC00892F817090FD80E8182B109283
:102DC000E9008091E80083FD0E94FF261F701093A8
:102DD000E90082E084BD93E095BD9AEF97BD8093B2
:102DE0006E000E94671090E090930A0180930901A1
:102DF0000E9436110E944511A6E8B3E0E9E9F3E02C
:102E00001EE0E12EEE0E11921D92EE12FCCF8EE02E
:102E100090E00E94F63080937C0390937D03FC0148
:102E20000E962BEF2193E817F907E1F70E94FD2298
:102E3000811102C00E9408230E94D41B0E94FD221F
:102E4000811104C00E9408230E94F31D45E050E058
:102E50006CE170E088E096E00E94D42E8091080634
:102E60008C7F11F40E94F31D8CE090E00E94E42E10
:102E700090E0A0E0B0E080937E0390937F03A09366
:102E80008003B093810389EA8093800089E0809376
:102E9000810024982C983F988AB18F7C8AB96E98CB
:102EA000479A8BB180638BB9769A8FE090E00E944D
:102EB000EC2E60938203709383038093840390933A
:102EC000850367703FEF639FB00111247595679587
:102ED0007595679577277093890060938800709344
:102EE0008B0060938A0070938D0060938C000E9429
:102EF000DE100E94FD22811102C00E94082382E0A0
:102F000090E00E94E42E8093B10384E090E00E9460
:102F1000E42E90E0909395038093940383E090E0F7
:102F20000E94E42E682F70E080E090E00E94262549
:102F300080910806837011F41092080180910806B0
:102F40008C7F8160809308060E94B31D8BE091E026
:102F50009093970380939603FF24F39499249A9473
:102F6000CC24C394D12C50E1452E62E1562E78E159
:102F7000A72EB12CE0E48E2E8091F605853009F065
:102F800046C0F092C2038091F605843009F1109298
:102F900098030FB6F894A895A09260000FBE809297
:102FA000600083B7817F846083BF83B7816083BF04
:102FB0007894889583B78E7F83BF0FB6F894A895D1
:102FC00080916000886180936000109260000FBE65
:102FD0008091F505882309F4CFCF0E94671090E017
:102FE00090930A01809309010E9436110E944511B5
:102FF000E9E9F3E01192EE12FDCF0E944C11E9E9EC
:10300000F3E081918111F2C0EE12FBCFB5CF0E94A7
:103010004C11E2EBF3E0A9E9B3E000E010E0702F1F
:103020006D9121912627B1F180E090E030E0782E7B
:10303000A901082E02C0559547950A94E2F740FF72
:1030400025C089837A83C60102C0880F991F7A94AC
:10305000E2F73C01862F90E08621972121E0892B21
:1030600009F420E02B830E944F228160782F9D83FA
:103070008C8349815A816B818D810E94A31CF80148
:10308000EE54FC4F80816826608219C0019686301C
:10309000910569F60F5F1F4F0E30110509F0BFCF84
:1030A0009E829F8218860E944F228160782F9A8785
:1030B00089874E815F8168858A850E94A31C8091E3
:1030C000AE039091AF030E9425229C019091AD0325
:1030D000992321F02431310508F47CC08091A903A3
:1030E0001091AA0381110BC0111194C02091AB0360
:1030F000211190C02091AC0321118CC06BC09F3F67
:1031000019F09F5F9093AD03181624F40E94482194
:103110008093A9038091A90387FF05C00E944821DD
:1031200081958093A903111624F40E94482180936D
:10313000AA038091AA0387FF05C00E9448218195B8
:103140008093AA033091A903332301F12091AA03AC
:103150002223E1F045EB3403C0011124892F990F9C
:10316000990B009719F08093A90302C0F092A9036C
:1031700035EB2303C0011124892F990F990B009778
:1031800019F08093AA0302C0F092AA038091AB03C6
:10319000181624F40E9426218093AB038091AB0380
:1031A00087FF05C00E94262181958093AB03809103
:1031B000AC03181624F40E9426218093AC0380915E
:1031C000AC0387FF05C00E94262181958093AC0344
:1031D0000E945B221091B0030E94A51D181709F4EC
:1031E000CBCE0E94A51D8093B003C6CE49BC59BC6E
:1031F00009B400FEFDCF8091D8008F7D8093D80068
:103200008091E00082608093E0008091E00081FD89
:10321000FCCFB2CE9F3F09F074CF7CCF80339105B5
:1032200020F5880F991F880F991FFC01EF5DFE4F55
:1032300052813381808183707181E0E98E9FC0016A
:10324000112483509C4FFC01E70FF11DB49760835C
:10325000FC01E50FF11DB4974083830F911DFC0124
:10326000B497208381E08093FC0308950F931F930C
:1032700010E0F801EE0FFF1FE352FD4F90819057D1
:1032800097FD9195000F111FF801E252FD4FE0816B
:10329000F0E0B097DF01AA0FBB1F8D010E0F1F1FBB
:1032A0002003D001219FB00D1124E8E3F0E0E91BD9
:1032B000F10997FDF3959F01220F331F89010E0F2E
:1032C0001F1F40039001419F300D11242A0F3B1F07
:1032D00037FF02C021583F4F220F232F221F330BED
:1032E000620F1F910F9108950F931F93522F10E0BB
:1032F000F801EE0FFF1FE252FD4FE081F0E0B097C2
:10330000EE0FFF1F9F015203D001539FB00D1124F8
:10331000000F111FF801E352FD4F008110E000572C
:103320001109000F111F40039001419F300D11241E
:103330002A0F3B1F37FF02C021583F4F220F232F78
:10334000221F330B620F1F910F9108950F931F934C
:10335000522F10E0F801EE0FFF1FE252FD4FE08107
:10336000F0E0B0979F015203D001539FB00D11249C
:10337000000F111FF801E352FD4F008110E00057CC
:10338000110940039001419F300D11242A0F3B1F6A
:1033900037FF02C021583F4F220F232F221F330B2C
:1033A000620F1F910F910895EF920F931F9393E077
:1033B000099F80011124159507956E2D600F1F91AF
:1033C0000F91EF90089550E0FA01EE0FFF1FE252C7
:1033D000FD4F9081905297FD9195440F551FFA0132
:1033E000E352FD4F408150E0FA01E21BF1099F01D9
:1033F000290F311D97FD3A95620F0895E42FF0E0F3
:10340000EE0FFF1FE252FD4F6081621B0895E42F13
:10341000F0E0EE0FFF1FE352FD4F6081621B089545
:10342000622F0895E42FF0E0EE0FFF1FE352FD4FEF
:10343000408134EE439F412D1124E82FF0E050E00D
:10344000445E5F4FDA01A21BB1099D01B7FF03C0C3
:1034500031952195310993E0220F331F9A95E1F7B9
:10346000AF01421B530B9A0157FF02C020E030E02E
:10347000582F259F212D1124822F0895E42FF0E04D
:10348000EE0FFF1FE352FD4F408134EE439F412D6D
:103490001124E72FF0E050E0445E5F4FDA01A21BF9
:1034A000B1099D01B7FF03C031952195310993E022
:1034B000220F331F9A95E1F7AF01421B530B9A017C
:1034C00057FF02C020E030E0279F212D1124722FEA
:1034D0000895FC01CB01309721F477FF2CC080E8E0
:1034E00008959F01F7FF04C0222733272E1B3F0BAF
:1034F000BC01621B730B280F391F97FD0DC0CB0158
:1035000045E0880F991F4A95E1F7B9010E94DC3028
:1035100080E2861B682F09C0C90125E0880F991F2A
:103520002A95E1F70E94DC30605A862FF7FF02C02F
:1035300081950895089580E00895EF920F93CF93B9
:10354000DF93D72FC82FC9010E19BA010E94691A3B
:10355000602F681B7D2F8C2FDF91CF910F91EF9003
:1035600008950F93CF93DF93D72FC82FC901BA01C6
:103570000E94691A682F600F7D2F8C2FDF91CF91E9
:103580000F910895EF920F931F93CF93DF93D62F50
:10359000C72F182FC9010E19010FBA010E94691A0D
:1035A000081B019F012D11246D2F7C2F802FDF918F
:1035B000CF911F910F91EF900895EF920F931F936A
:1035C000CF93DF93D62F172FC82FC9010E19070FDE
:1035D000BA010E94691A081B702F719F712D112466
:1035E0006D2F8C2FDF91CF911F910F91EF90089548
:1035F000FF920F931F93CF93DF93F62ED72F182FA1
:10360000C901C12FC01BBA010E94691A982F880FE7
:10361000980F2C2F291B219F212D11246F2D7D2FD9
:10362000822FDF91CF911F910F91FF900895FF920C
:103630000F931F93CF93DF93F62E172FD82FC90127
:10364000C72FC01BBA010E94691A982F880F980FC4
:10365000C91B7C2F719F712D11246F2D8D2FDF9130
:10366000CF911F910F91FF900895EF92FF921F93BA
:10367000CF93DF937B01182F110FC0E0D0E08C2F88
:103680008C5D8093E80320E030E0F901EC0FFD1F32
:10369000EE0DFF1D8081F901E851FC4F81832F5F02
:1036A0003F4F2031310589F724E630E041E150E019
:1036B00068EE73E0812F0E94A92E6096C039D10573
:1036C000F1F6DF91CF911F91FF90EF9008958091D7
:1036D000FC03882351F06DEF73E084E70E94351BF3
:1036E0006DE874E087E70E94351B1092FC03089593
:1036F000E8EEF3E06083418324E630E042E050E00E
:10370000BF01880F0C94A92ECF93DF93C82F4BE0F5
:103710006DEF0E94781B40E06AE08C2F0E94781BBE
:103720008FE39CE90197F1F700C0000040E060E002
:103730008C2F0E94781B40E061E08C2F0E94781B48
:1037400040E066E08C2F0E94781B40E06DEF8C2FEC
:103750000E94781BD0E040E06D2F8C2F0E94781BD8
:10376000DF5FD231C1F740E06D2F8C2F0E94781BB4
:10377000DF5FD432C1F740E06D2F8C2F0E94781BA1
:10378000DF5FD43BC1F74BE06DEF8C2F0E94781BBD
:1037900041E06AE08C2F0E94781B40E06DEF8C2F97
:1037A000DF91CF910C94781B7F928F929F92AF9272
:1037B000BF92CF92DF92EF92FF920F931F93CF931E
:1037C000DF930E94F72D84E70E94841B87E70E9405
:1037D000841BE4E2EE2EE1E0FE2EC12CD12CF2E1BE
:1037E0007F2EA8E08A2E912CAA24A394B12CF70155
:1037F0003297608170E0CB0184973196E081F0E0F0
:10380000B497D7012C9130E024523109D601AA0F88
:10381000BB1FAA0FBB1FAF5DBE4FCC91C370D0E0E2
:10382000AC0197FF02C0495F5F4F63E05595479534
:103830006A95E1F77C9E80017D9E100D1124040F96
:10384000111D0D531C4FB4010E94DC30A50102C0B4
:10385000440F551F8A95E2F7CA01D8019C91892B24
:103860008C93CF01F7FD079653E0959587955A9570
:10387000E1F77C9E80017D9E100D1124080F111D23
:103880000D531C4FCF01B4010E94DC30F50102C082
:10389000EE0FFF1F8A95E2F7CF01D8019C91892B8B
:1038A0008C93C90137FD079643E0959587954A9516
:1038B000E1F77C9EF0017D9EF00D1124E80FF11DD3
:1038C000ED53FC4FC901B4010E94DC30950102C0E8
:1038D000220F331F8A95E2F7C9019081892B8083DB
:1038E0003FEFC31AD30A44E0E40EF11C50E3C516BF
:1038F000D10409F07CCF81E08093E70303EC13E06F
:10390000C0E0D0E0D8014D918D016C2F84E70E947A
:10391000781BFE01ED53FC4F42896C2F87E70E9414
:10392000781B2196C231D10569F7DF91CF911F91A4
:103930000F91FF90EF90DF90CF90BF90AF909F904E
:103940008F907F900895EF92FF920F931F93CF93E4
:10395000DF93CDB7DEB767970FB6F894DEBF0FBE23
:10396000CDBF4B8B5C8B6D8B7E8B8F8B0E891F89B4
:1039700001151105C1F15F3F11F44F3FA1F1E42E94
:10398000F12CA1E0B0E0042E01C0AA0F0A94EAF7DE
:10399000852F90E0662319F020910E0606C09C0149
:1039A0002D5D3A4FF90120812A232223A9F046E018
:1039B000489F9001499F300D1124F701E20FF31F3A
:1039C000EE0FFF1FEF51FE4F40815181FC01ED5D75
:1039D000FA4F9081A92B06C0FC01ED5DFA4FA0952E
:1039E0008081A823A08386E0FE013D96DF01982F09
:1039F0001D929A95E9F74D875E876F87198B088B23
:103A0000DE01179601900D928A95E1F7CE01079697
:103A10000E94562A811137C086E0FE013796DE01EA
:103A2000119601900D928A95E1F7FF81E8856A85EC
:103A30007B856115710539F1EF3F11F4FF3F19F1F5
:103A40002091570530E0C901019687709927409170
:103A5000880550E08417950779F1F983EA837D831F
:103A60006C8396E0929FD001939FB00D1124A85AC9
:103A7000BA4FFE01319601900D929A95E1F780932D
:103A800057050E94302516E08091880590915705D2
:103A9000891711F1189FC0011124885A9A4F0E946A
:103AA000562A8823C9F08091880590E00196877096
:103AB000992780938805E8CF1092D1050E943B2C6E
:103AC0001092570510928805E1E5F5E086E0DF01E8
:103AD0001D928A95E9F7D7CF67960FB6F894DEBFA7
:103AE0000FBECDBFDF91CF911F910F91FF90EF904F
:103AF000089520912105309122058217930771F0D6
:103B00009093220580932105E0919603F09197030D
:103B1000309721F00084F185E02D099408952091DB
:103B20001F05309120058217930771F090932005AF
:103B300080931F05E0919603F0919703309721F051
:103B40000680F781E02D09940895E0919603F091A5
:103B50009703309721F00190F081E02D099480E0E7
:103B600008950C940E1945E050E06CE170E088E097
:103B700096E00C94F82EE8E0F6E0880F880F90812C
:103B80009370892B8083109208010C94B31D90913F
:103B90000806892F86958695815C8F73937088239C
:103BA00021F0880F880F892B02C0892F80658093B0
:103BB0000806109208010C94B31D90910806892FF5
:103BC000869586958F5F8F739370853120F4880F6B
:103BD000880F892B02C0892F846080930806109279
:103BE00008010C94B31DE8E0F6E08DE280831182B9
:103BF0008FEF828383838FE784830C94B31D482FD8
:103C0000982F46FD9095E92FEF739F7046FD9F5FBB
:103C1000E295EF70EE0FF0E0E75EFE4F2181299F05
:103C2000802D212D112482958F702295207F822B4B
:103C30003081982F930F892F47FD819580580895E3
:103C4000BC018230910508F40895613E8EE1780749
:103C500048F49B0195E0369527959A95E1F748E061
:103C6000420F01C04FEF91E0242F30E0290F311DAA
:103C700035952795229FF001239FF00DF00D11241B
:103C80006E177F0718F44FEF420F05C02F3F310525
:103C900039F091E0920F491738F78FEF890F0895A7
:103CA0008FEF08950F931F93CF93DF931F92CDB79C
:103CB000DEB7182F47FD4195E8E3F0E0CF01841B04
:103CC000910947FD9395889FF001899FF00DF00DB4
:103CD0001124229FC001239F900D900D11248E0F5F
:103CE0009F1F79830E94201E982F880F980F692F9D
:103CF000600F7981812F0F90DF91CF911F910F91EC
:103D0000089520E030E0A901869F412D969F400D47
:103D1000511D1124CA010895CF92DF92EF92FF92B4
:103D20000F931F93CF93DF937B01282F382FE82F1A
:103D3000F0E0F11006C0E05DFA4F6491762F862F17
:103D40007BC00F2D10E046E0649FC0011124CFEF2F
:103D5000D0E0BE010E94C830AB016BEA6403C00131
:103D6000659F900D11248E0D911D8E0D911D982F24
:103D7000990F890FBE01601B710B6E9FD0016F9F61
:103D8000B00D7E9FB00D11249B2F8F9DB00111248B
:103D9000672F77277E01E61AF70AEE9EB001EF9EA5
:103DA000700DFE9E700D11246E01C81AD108C09EC0
:103DB0007001C19EF00CD09EF00C11240F2D112724
:103DC000C01BD10BCE9F8001CF9F100DDE9F100D29
:103DD0001124812F4230510591F04CF441155105C9
:103DE000E1F041305105B9F4822F272F16C044303D
:103DF000510569F044F04630510579F00CC0822F2E
:103E00002B2F912F0AC02B2F932F872F06C08B2F7C
:103E1000922F212F02C08B2F972FE22FF0E0E05D31
:103E2000FA4F7491E82FF0E0E05DFA4F6491E92FCA
:103E3000F0E0E05DFA4F8491DF91CF911F910F91F7
:103E4000FF90EF90DF90CF90089560917E038CE01B
:103E500090E00C94082F9091940392FF0DC0282FAE
:103E60002871283019F4877F846006C0282F2471B8
:103E7000243011F48B7F886093FF0DC0282F2871A8
:103E8000283119F4877E846106C0282F24712431DB
:103E900011F48B7E886194FD877E08950F931F93A4
:103EA000CF93DF93C62FD42F022FFC01828188236A
:103EB000C9F0609370030E944F2290931E05809377
:103EC0001D0580E28C0F883008F050C0C77081E07B
:103ED00001C0880FCA95EAF7DF91CF911F910F912A
:103EE0000C94592C10917003161330C080911D054D
:103EF00090911E050E942522883C910538F5C0E26C
:103F0000CD0F1D17B9F080E2810F883040F4177093
:103F100081E001C0880F1A95EAF70E944E2CC83044
:103F200048F481E09D2F977001C0880F9A95EAF7B9
:103F30000E94592C802F0E94CA2CC830B8F4D77028
:103F400081E001C0880FDA95EAF70AC080E28C0FA1
:103F5000883060F4C77081E001C0880FCA95EAF725
:103F6000DF91CF911F910F910C944E2CDF91CF9147
:103F70001F910F9108958091D3050895CF93DF93FA
:103F800000D01F92CDB7DEB72091F605243031F571
:103F900023E02983805891099B838A8382E0809360
:103FA000E9008FEF9091E800815095FD06C095EDF6
:103FB0009A95F1F700008111F5CF8091E80085FF17
:103FC0000DC040E050E063E070E0CE0101960E9439
:103FD000C8268091E8008E778093E8000F900F90BC
:103FE0000F90DF91CF9108950F931F93CF93DF939D
:103FF00000D01F92CDB7DEB78C010E949816823098
:1040000011F0843021F584E089831B830A8382E0E8
:104010008093E9008FEF9091E800815095FD06C0F4
:1040200095ED9A95F1F700008111F5CF8091E800A8
:1040300085FF0DC040E050E063E070E0CE010196E6
:104040000E94C8268091E8008E778093E8000F9048
:104050000F900F90DF91CF911F910F910895CF9303
:10406000DF93EC010E949816823011F08430F9F44D
:1040700082E08093E9009FEF8091E800915085FDF8
:1040800006C085ED8A95F1F700009111F5CF80917A
:10409000E80085FF0CC040E050E066E070E0CE0133
:1040A0000E94C8268091E8008E778093E800DF9117
:1040B000CF910895CF93DF93EC010E949816823040
:1040C00011F08430D9F580911501882339F0809161
:1040D000940387FF03C060E282E002C068E081E0F1
:1040E0008093E9008FEF9091E800815095FD06C024
:1040F00095ED9A95F1F700008111F5CF8091E800D8
:1041000085FF1CC080911501811105C040E050E081
:1041100068E070E003C070E040E050E0CE010E9433
:10412000C8268091E8008E778093E80080E2FE0147
:10413000A4EDB5E001900D928A95E1F7DF91CF9162
:104140000895803F39F48091AA0387FF6CC01092D4
:10415000AA0369C0813F29F48091AA031816BCF311
:1041600062C09091A903823F29F497FF5CC010922E
:10417000A90359C0833F19F41916CCF354C0893FE1
:1041800041F48091AB0318160CF04DC01092AB03B4
:104190004AC08A3F29F48091AB0387FF44C0F6CF21
:1041A0008B3F39F48091AC0387FF3DC01092AC0384
:1041B0003AC08C3F29F48091AC031816BCF333C08D
:1041C000843F21F48091A8038E7F17C0853F21F49E
:1041D0008091A8038D7F11C0863F21F48091A803B0
:1041E0008B7F0BC0873F21F48091A803877F05C098
:1041F000883F31F48091A8038F7E8093A80313C079
:104200008D3F21F48091D0058E7F0BC08E3F21F42D
:104210008091D0058D7F05C08F3F29F48091D00516
:104220008B7F8093D0058091A90381110EC080916E
:10423000AA0381110AC08091AB03811106C080914D
:10424000AC03811102C01092AD0308958091D00596
:1042500080FD16C081FD16C082FD18C08091AD039F
:10426000882391F0883290F428E0829FC0011124C5
:1042700068E270E00E94DC30862F672B29F007C0CF
:1042800082E0089584E0089581E0089588E008952B
:104290008091D00580FD17C081FD17C082FD19C037
:1042A0008091AD03882399F08C3398F423E2829FA8
:1042B000C00111246CE370E00E94DC30862F672B74
:1042C00049F481E0089588E0089581E1089585E04A
:1042D000089583E20895803F21F40E94482181954A
:1042E00004C0813F29F40E9448218093AA030895C5
:1042F000823F21F40E944821819504C0833F29F424
:104300000E9448218093A9030895893F19F40E94CF
:10431000262105C08A3F31F40E9426218195809391
:10432000AB0308958B3F21F40E942621819504C0A0
:104330008C3F29F40E9426218093AC030895843F8A
:1043400021F48091A803816017C0853F21F48091FA
:10435000A803826011C0863F21F48091A803846085
:104360000BC0873F21F48091A803886005C0883F77
:1043700031F48091A80380618093A80308958D3F54
:1043800021F48091D00581600BC08E3F21F4809193
:10439000D005826005C08F3F29F48091D0058460EC
:1043A0008093D005089578941F920F920FB60F92C4
:1043B00011248F939F93AF93BF938091CC059091DD
:1043C000CD05A091CE05B091CF050196A11DB11DDF
:1043D0008093CC059093CD05A093CE05B093CF05E7
:1043E000BF91AF919F918F910F900FBE0F901F9033
:1043F0001895CF92DF92EF92FF920F931F932FB7F2
:10440000F894C090CC05D090CD05E090CE05F0900A
:10441000CF052FBF97018601061B170B280B390B01
:10442000C616D706E806F90618F0C901B80106C095
:10443000C901B80161507109810991091F910F915A
:10444000FF90EF90DF90CF900895CF92DF92EF92A0
:10445000FF920F931F932FB7F8944091CC05509182
:10446000CD056091CE057091CF052FBF6A017B010C
:10447000EE24FF248C0120E030E0C016D106E206D5
:10448000F30610F4415051099A01281B390BC90158
:104490001F910F91FF90EF90DF90CF9008952FB76D
:1044A000F8948091CC059091CD05A091CE05B09166
:1044B000CF052FBF0895E0919603F09197033097B1
:1044C00049F082E08093A7030480F581E02D87EA1C
:1044D00093E009950E944F229093AF038093AE031F
:1044E00008951F920F920FB60F9211248F939F93EE
:1044F000AF93BF9380919803811113C08091CC0535
:104500009091CD05A091CE05B091CF054196A11D0A
:10451000B11D8093CC059093CD05A093CE05B093AB
:10452000CF05BF91AF919F918F910F900FBE0F90CC
:104530001F90189520911501222321F020919403BA
:1045400027FD04C0FC013296089619C0262F269537
:10455000269526952E31C0F4FC01E20FF11D6770FF
:1045600081E090E001C0880F6A95EAF7809592811A
:104570008923828308953196E817F90729F020816D
:104580002613F9CF1082F7CF089520911501222329
:1045900021F02091940327FD05C0FC0132962FEFF6
:1045A00030E019C0262F2695269526952E3120F528
:1045B000FC01E20FF11D677081E090E001C0880FFF
:1045C0006A95EAF79281892B828308952F3F39F00B
:1045D0003F5F363041F041914613F8CF0DC0411195
:1045E000F7CF232FF5CF2F3F39F0FC01E20FF11D5C
:1045F00027FDFA9562830895089580E090E00E9477
:10460000F22E21E08D3E9E4F09F020E0822F08958A
:104610006DEE7EEF80E090E00E94262F60E082E069
:1046200090E00E94082F60E083E090E00E94082F55
:104630001092C8051092C9051092CA051092CB05B8
:1046400060E084E090E00E94082F60E085E090E068
:104650000E94082F60E086E090E00E94082F6FEF34
:1046600087E090E00E94082F40E050E0BA0188E027
:1046700090E00E941A2F60E08DE090E00E94082FE9
:1046800040E050E0BA0188E190E00E941A2F60E01B
:1046900087E190E00E94082F40E050E0BA018CE1F1
:1046A00090E00E941A2F60E080E290E00E94082FC4
:1046B0001092820310928303109284031092850358
:1046C00084E0809382034091820350918303609140
:1046D0008403709185038FE090E00E941A2F40E0E0
:1046E00050E0BA0183E190E00C941A2FCF92DF9250
:1046F000EF92FF926C01EE24FF24C114D104E10477
:10470000F10421F0C701B60120E101C020E0C72E6D
:10471000D82EE92EFF24C114D104E104F10419F0CC
:10472000285FC701B6016B017C0154E0F694E79461
:10473000D794C7945A95D1F7C114D104E104F10478
:1047400019F02C5FC701B6016B017C0142E0F694C1
:10475000E794D794C7944A95D1F7C114D104E104E2
:10476000F10419F02E5FC701B601DC01CB01B6954B
:10477000A79597958795892B8A2B8B2B09F02F5F0F
:10478000822FFF90EF90DF90CF9008958091C70522
:1047900081111092C70508959091C6058091D105A9
:1047A000892B2091C505982F922B909331058091EC
:1047B000C7058823D9F0892B809331058091150195
:1047C000882331F08091940387FF02C08EE101C0FD
:1047D00086E0E3E3F5E090E0815028F02191222388
:1047E000D9F39F5FF9CF91110E94C623E091960300
:1047F000F09197033097A9F080911501882359F023
:104800008091940387FF07C0809131058093320522
:1048100085E0809331050280F381E02D81E395E00E
:1048200009940895BF92CF92DF92EF92FF920F9377
:104830001F93CF93DF938C01C090C805D090C9051A
:10484000E090CA05F090CB058091C0059091C1051C
:10485000A091C205B091C305C82AD92AEA2AFB2A29
:10486000CFE1D0E0D701C6010C2E04C0B695A795C4
:10487000979587950A94D2F780FF07C0BC2EB801A0
:104880008C2F0E94D80D019719F4219758F7B12C5D
:104890008B2DDF91CF911F910F91FF90EF90DF90C3
:1048A000CF90BF900895CF93DF93EC010E94122424
:1048B000BE010E94D80DDF91CF910895292F220FBC
:1048C000920F990F890F682F669566956695982FB8
:1048D000977085E0689FB001112440E050E080E0CF
:1048E000FA01E60FF71FE757FA4F208130E0092E53
:1048F00002C0369527950A94E2F721703327042EDB
:1049000001C0220F0A94EAF7822B4F5F5F4F4530B8
:10491000510531F70895292F220F920F990F890F12
:10492000A82FA695A695A695877051E001C0550FB2
:104930008A95EAF785E0A89FD001112420E030E0B5
:1049400070E0F901EA0FFB1FE757FA4F4081CB01F6
:10495000022E02C0969587950A94E2F781709927F6
:10496000819584278523842780832F5F3F4F2530BF
:10497000310539F708950E9435106093C005709392
:10498000C1058093C2059093C3050C94202C0F930E
:104990001F9341E050E060E070E004C0440F551FF9
:1049A000661F771F8A95D2F7409550956095709550
:1049B0008091C0059091C105A091C205B091C30539
:1049C0008A019B01082319232A233B23C901B8012B
:1049D0001F910F910C94BB242091C40580958223D4
:1049E0008093C405982F977079F430E0482F082EF3
:1049F000000C550B2417350739F08595859585955D
:104A00000E94C7241092C40508950F931F9341E09C
:104A100050E060E070E004C0440F551F661F771F30
:104A20008A95D2F78091C0059091C105A091C205E9
:104A3000B091C3058A019B01082B192B2A2B3B2B14
:104A4000C901B8011F910F910C94BB246093C80554
:104A50007093C9058093CA059093CB050C94202CC4
:104A60008091880590915705891719F08F5F87709D
:104A7000FBCF08959F92AF92BF92CF92DF92EF92B9
:104A8000FF920F931F93CF93DF936C0180911601D8
:104A9000C82FCC0FCC0FC80FD5E0DC0FD13308F0F6
:104AA000D0E360910C066695669580910006909122
:104AB00001060E94811E182F80E4810F0E94FF1DB5
:104AC00090E8F92EF80E812F0E94FF1D20E8922E0B
:104AD000980ECD1700F5AC2EB12CF501E35CFC4F20
:104AE0008081909117019823A1F06091090670913F
:104AF0000A0680910B06E12E0C2F292D4F2DF60171
:104B000009950E948C1E462F282F672FC5010E94F1
:104B1000B11DCF5FDECF81E0D03308F080E0DF91C0
:104B2000CF911F910F91FF90EF90DF90CF90BF90AA
:104B3000AF909F9008956F927F928F929F92AF92C5
:104B4000BF92CF92DF92EF920F931F93CF93DF9399
:104B50004C0180911601C82FCC0FCC0FC80FD5E0A7
:104B6000DC0FD13308F0D0E360910C06669580919C
:104B70000006909101060E94811E182FCD1708F0A3
:104B800044C06C2E712CF301E35CFC4F908180914A
:104B900017018923C1F1F301EE0FFF1FE352FD4F0F
:104BA000C080D12C80E7C81AD108F301EE0FFF1F97
:104BB000E252FD4FA080B12CE0E2AE1AB108CC9CCD
:104BC0009001CD9C300D300D1124AA9CC001AB9CEE
:104BD000900D900D1124820F931F0E94201E082F0C
:104BE0006091090670910A0680910B06E12E9501ED
:104BF000A601F40109950E948C1E462F282F672FCD
:104C0000C3010E94B11DCF5FB9CF81E0D03308F05E
:104C100080E0DF91CF911F910F91EF90DF90CF90C7
:104C2000BF90AF909F908F907F906F900895CF929C
:104C3000DF92EF92FF920F931F93CF93DF937C014C
:104C400080911601C82FCC0FCC0FC80FD5E0DC0F18
:104C5000D13308F0D0E360910C0666958091000690
:104C6000909101060E94811E182FCD1778F5CC2E49
:104C7000D12CF601E35CFC4F9081809117018923D0
:104C800019F1F601EE0FFF1FE252FD4F208130E0D7
:104C900020523109F601EE0FFF1FE352FD4F408114
:104CA00050E0405751096091090670910A068091C1
:104CB0000B06012FF70109950E948C1E462F282F05
:104CC000672FC6010E94B11DCF5FCFCF81E0D033E7
:104CD00008F080E0DF91CF911F910F91FF90EF904E
:104CE000DF90CF900895DF92EF92FF920F931F9382
:104CF000CF93DF937C0190911601C92FCC0FCC0F7D
:104D0000C90FD5E0DC0FD13308F0D0E360910C0679
:104D10006695669580910006909101060E94811E1D
:104D2000D82ECD17F0F40C2F10E0F801E35CFC4F07
:104D3000808190911701982391F0609109067091FC
:104D40000A0680910B062D2D4C2FF70109950E9424
:104D50008C1E462F282F672FC8010E94B11DCF5FE0
:104D6000E0CF81E0D03308F080E0DF91CF911F9158
:104D70000F91FF90EF90DF900895CF93DF93EC01B8
:104D800080EEFE01099581EEFE01DF91CF9109943D
:104D9000CF92DF92FF920F931F93CF93DF931F92D7
:104DA000CDB7DEB7F82E8B0199830E9471149981DB
:104DB00081111CC0CF2CD92E01151105B1F08091A5
:104DC000E80085FD0AC08091E8008E778093E800B6
:104DD0000E947114882381F309C0F60181916F014B
:104DE0008093F10001501109E7CF80E00F90DF912F
:104DF000CF911F910F91FF90DF90CF9008951F9357
:104E0000CF93DF93CDB7DEB7AA970FB6F894DEBF86
:104E10000FBECDBFE8EFF5E088E08E0F9091F10076
:104E200091938E13FBCF8091F905833009F460C014
:104E300030F4813071F0823009F49CC0B3C08A3004
:104E400009F488C08B3009F46BC0893009F0AAC01E
:104E500020C08091F805813A09F0A4C08091E80053
:104E6000877F8093E8008091FC059091FD05892B58
:104E700021F460E284ED95E003C060E080E090E022
:104E800070E00E9435168091E8008B778093E800EF
:104E900089C08091F805813209F084C08091FC05B9
:104EA0009091FD05029708F07DC08091E800877F12
:104EB0008093E8008091E80082FD05C08091F605AE
:104EC0008111F8CF6FC02091F3008091F20090E043
:104ED000922B029729F48091F1008B7F813021F48D
:104EE0008091F1008093D3058091E8008B7756C0C4
:104EF0008091F805813A09F055C08091FC059091A8
:104F0000FD05892B09F04EC08091E800877F8093D2
:104F1000E8008091E80080FFFCCF8091150139C046
:104F20008091F8058132F1F58091FC059091FD05A5
:104F3000892BC1F58091E800877F8093E8000E946B
:104F4000A3148091FA05809315011092D1050E9457
:104F50003B2C28C08091F805813221F58091E80032
:104F6000877F8093E8000E94A3148091FB058093C3
:104F7000D20518C08091F805813AA1F48091E8002B
:104F8000877F8093E8008091E80080FFFCCF8091CC
:104F9000D2058093F1008091E8008E778093E8003D
:104FA0000E94A3148091E80083FFD6C18091F80588
:104FB0009091F905492F50E04A30510508F0CCC1D5
:104FC000FA01E455FF4F0C94F030803821F082381C
:104FD00009F0C2C108C08091F4059091F5059923AC
:104FE00089F082600FC08091FC058F70873008F0D7
:104FF000B3C18093E9008091EB0085FB882780F99D
:105000001092E9009091E800977F9093E8008093D8
:10501000F1001092F10074C1282F2D7F09F09CC17E
:10502000882319F0823061F097C18091FA058130B0
:1050300009F092C1933009F080E08093F5052EC00D
:105040008091FA0581112AC08091FC058F702FEFA5
:10505000280F263008F080C18093E9002091EB00F2
:1050600020FF1CC0933021F48091EB00806214C0BB
:105070009091EB0090619093EB0021E030E0A9016A
:1050800002C0440F551F8A95E2F74093EA00109240
:10509000EA008091EB0088608093EB001092E900B9
:1050A0008091E800877F2FC1811156C11091FA05C8
:1050B0001F778091E3008078812B8093E3008091BB
:1050C000E800877F8093E8000E94A3148091E800A5
:1050D00080FFFCCF8091E30080688093E300111192
:1050E00002C082E001C083E08093F60535C180589C
:1050F000823008F031C18091FA059091FB058C3D1A
:1051000053E0950779F583E08A838AE289834FB774
:10511000F894DE01139620E03EE051E2E32FF0E048
:1051200050935700E49120FF03C0E295EF703F5F7A
:10513000EF708E2F90E0EA3010F0C79601C0C09655
:105140008D939D932F5F243149F74FBF8091E800E5
:10515000877F8093E8006AE270E0CE0101960E94AA
:105160003516BDC04091FC055091FD05292F332710
:1051700023303105B9F06CF42130310509F4FBC05E
:105180002230310509F0E8C08BE390E0E0E3F7E07E
:1051900054C02132310509F433C02232310509F4FB
:1051A0003CC0DAC0992781309105D1F05CF4892B9D
:1051B00009F0D2C0E3EBF7E0E4918E2F90E0E3EB4F
:1051C000F7E038C08230910599F0039709F0C4C028
:1051D000EDE7F7E0E4918E2F90E0EDE7F7E02AC0ED
:1051E000EBE9F7E0E4918E2F90E0EBE9F7E022C0E5
:1051F000E3E8F7E0E4918E2F90E0E3E8F7E01AC0EF
:105200004115510509F4BCC04130510509F0A4C055
:1052100089E090E0EBE5F7E010C04115510509F495
:10522000B4C04130510509F097C080EC90E0E0E354
:10523000F6E003C0009709F48FC02091E800277FB3
:105240002093E8002091FE053091FF0528173907CB
:1052500008F4C90140E0009789F12091F605222366
:1052600009F43DC02530D9F12091E80023FD37C075
:105270002091E80022FD2FC02091E80020FFEBCF15
:105280004091F3002091F20030E0342B009759F068
:105290002830310540F444914093F1003196019754
:1052A0002F5F3F4FF3CF41E02830310509F040E058
:1052B0002091E8002E772093E800CDCF4111CDCF8B
:1052C0000AC08091F605882351F0853041F0809125
:1052D000E80083FD04C08091E80082FFF2CF809156
:1052E000E8008B778093E80037C08038A9F580917B
:1052F000E800877F8093E8008091F7058093F100B4
:105300008091E8008E778093E8000E94A31424C067
:10531000811122C01091FA051230F0F48091E8005A
:10532000877F8093E8001093F7050E94A314111162
:1053300006C08091E30087FD02C081E001C084E0E7
:105340008093F60542E061EC81E00E94C21442E2E3
:1053500061EC82E00E94C2148091E80083FF1AC0D1
:105360008091E800877F8093E8008091EB00806265
:105370008093EB000FC082E190E0EBE6F7E05DCFB9
:1053800089E090E0E2E4F7E058CF80E490E0E0EFDD
:10539000F6E053CFAA960FB6F894DEBF0FBECDBF8E
:1053A000DF91CF911F9108958091560582958F705E
:1053B00009F054C080915305882309F44FC08091AF
:1053C0008805A09157056091510570915205409153
:1053D000540550915505B6E08A1709F43FC090E096
:1053E00041155105C1F17F3F11F46F3FA1F1B89F05
:1053F000F001B99FF00D1124E85AFA4F2181721380
:105400002AC02081621327C02281211124C0238158
:1054100034812417350710F421503109241B350B32
:10542000283C3105C0F4209156052F70206120934F
:10543000560526E0289FF001299FF00D1124E35A1C
:10544000FA4F80818F708061808381E595E00E94B2
:10545000FB030C94302501968770BECF08950E94FF
:105460005324292F2F7092959F70E92FF0E03297E7
:10547000EE30F105B8F4EA54FF4F0C94F030803F61
:1054800099F018F4803E70F40FC0843F59F40CC0BA
:10549000803E50F0813F31F407C0822F869586957B
:1054A0008695089580E0089581E00895BF92CF9297
:1054B000DF92EF92FF920F931F93CF93DF93CDB7BD
:1054C000DEB761970FB6F894DEBF0FBECDBF8C017B
:1054D00085E0F801DE011D9601900D928A95E1F7B5
:1054E000D8013C9111962C9111971296EC9012973D
:1054F0001396CD90DC901497509151056091520510
:105500008091540590915505009709F44FC16F3F64
:1055100019F45F3F09F44AC1B0905305BB2009F468
:10552000ECC040915605C816D90628F0F601E81BD4
:10553000F90BCF0104C0809590958C0D9D1DFF2423
:10554000F394883C910548F0F12C407F09F09FC00E
:1055500081E595E00E94FB0321C1842F807F09F043
:1055600044C0621312C0531310C0E1100EC04F703C
:1055700040614093560581E595E00E94FB038091D0
:105580005605D80115968C932EC0CD2819F12F3FC2
:1055900011F43F3FF9F0FE2CE1101CC0809188050A
:1055A0004091570556E0841709F458C090E0589F81
:1055B000F001599FF00D1124E85AFA4F618126132A
:1055C00006C06081361303C06281611103C0019679
:1055D0008770E9CFFE2CEE2009F421C18091560599
:1055E000816080935605F12C1AC162130AC05313CF
:1055F00008C0E11006C080915605D80115968C931D
:10560000B0C03D872E878D859E850E942F2A8823D6
:10561000D1F1EE20C1F120915605822F82958F7035
:1056200090E0029774F0809151059091520598870F
:105630008F831986DB86CA862C87CE0107960E9447
:10564000FB0386E0F801A1E5B5E001900D928A9593
:10565000E1F70E94D429FF24F394E1C03D872E870F
:105660008D859E850E945324292F22952F7030E02E
:10567000223031050CF0C7C09F7009F0C1C0805EB8
:10568000883008F4CCC0C8010E94FB03E4CF621349
:1056900014C0531312C0E11010C080915605F801D8
:1056A0008583C8010E94FB0386E0E1E5F5E0DF01A8
:1056B0001D928A95E9F7FB2CB2C03D872E878D8518
:1056C0009E850E942F2A8823F1F2EE20E1F220919C
:1056D0005605822F82958F7090E002970CF4B1CF1F
:1056E00080915105909152059A8389831B82DD82B6
:1056F000CC822E83CE010196A2CFC816D90638F0EF
:10570000C81AD90AB8ECCB16D10450F007C080955E
:1057100090958C0D9D1D883C910510F0F12C3EC09C
:10572000FE2CEE2009F4AFCF621327C0531325C01F
:105730002091560520FD18C0822F82958F70482F2A
:1057400050E04115510581F0F80125834F30510596
:1057500041F08F5F982F9295907F822F8F70892BC9
:105760008583C8010E94FB0386E0F801A1E5B5E04E
:1057700001900D928A95E1F752C03D872E878D8565
:105780009E850E942F2A81115CCF809156058160F1
:1057900080935605C8010E94FB0341C0E1E5F5E096
:1057A00086E0DF011D928A95E9F739C0EE2009F401
:1057B0006ACF3D872E878D859E850E942F2AF82EE1
:1057C000882309F460CF86E0F801A1E5B5E00190F7
:1057D0000D928A95E1F780915105909152050E94B2
:1057E000532492959F70963041F480910E0691E07B
:1057F000892780930E0690930D060E94D4290FC02E
:1058000081113DCF0CC0243031050CF03CCF9F708E
:1058100009F435CFF8019581907F09F030CF8F2DB5
:1058200061960FB6F894DEBF0FBECDBFDF91CF916A
:105830001F910F91FF90EF90DF90CF90BF90089550
:105840001092C6051092C5050E94CC23E7EAF3E04A
:1058500086E0DF011D928A95E9F71092AD03109260
:10586000D0050E945B2280E090E00E948F1D80E0C6
:1058700090E00C94791D80911501882331F080917E
:10588000940387FF02C08EE101C086E0E3E3F5E008
:10589000DF011D928A95E9F70C94202C882341F0B2
:1058A00080959091D10589238093D1050C94CC23C8
:1058B0000895882339F09091D105892B8093D105E3
:1058C0000C94CC230895882309F463C0823869F4CA
:1058D0000E94A51D81FF5DC069E381E395E00E9400
:1058E000C5220E94CC2369E30EC0833891F40E9444
:1058F000A51D80FF4EC063E581E395E00E94C522AF
:105900000E94CC2363E581E395E00E949A220C94E7
:10591000CC23843869F40E94A51D82FF3AC067E455
:1059200081E395E00E94C5220E94CC2367E4EBCF7F
:105930009CEF980F913A10F4682FE5CF90E2980F02
:10594000983088F4877021E030E0A90102C0440F4C
:10595000551F8A95E2F7CA0180959091D105892358
:105960008093D105D4CF9BE5980F933020F480E04D
:1059700090E00C948F1D98E5980F973120F480E00B
:1059800090E00C94791D803F20F00E94A1200C949F
:105990005B220895CF93C82F0E94DD2CC93349F4B0
:1059A0002FEF87EE93E0215080409040E1F700C058
:1059B00000008C2FCF910C94632C882309F416C11E
:1059C0008238B1F40E94A51D81FD10C169E381E315
:1059D00095E00E94C5220E94CC232FEF41EE54E0B7
:1059E000215040405040E1F700C0000069E317C07B
:1059F0008338D9F40E94A51D80FDF8C063E581E3DA
:105A000095E00E94C5220E94CC238FEF91EE24E006
:105A1000815090402040E1F700C0000063E581E341
:105A200095E00E949A220C94CC238438B1F40E9411
:105A3000A51D82FDDBC067E481E395E00E94C522DD
:105A40000E94CC234FEF51EE84E041505040804003
:105A5000E1F700C0000067E4E2CF9CEF980F913AB5
:105A600030F4682F81E395E00E94C522DCCF90E2FC
:105A7000980F983080F4877021E030E0A90102C0CF
:105A8000440F551F8A95E2F7CA019091D105892BE1
:105A90008093D105C8CF9BE5980F933070F4853A79
:105AA00029F0863A31F083E890E005C081E890E083
:105AB00002C082E890E00C948F1D98E5980F973112
:105AC00008F08EC0883A09F445C0893A09F445C007
:105AD0008A3A09F445C08B3A09F445C08C3A09F476
