:100000000C9404030C9421030C9421030C942103FD
:100010000C9421030C9421030C9421030C942103D0
:100020000C9421030C9421030C9491120C946611EE
:100030000C94DE180C9421030C9421030C942103DE
:100040000C9421030C9421030C9421030C942103A0
:100050000C9421030C9440180C9421030C9421035C
:100060000C9421030C9421030C9421030C94210380
:100070000C9421030C9421030C9421030C94210370
:100080000C9421030C9421030C9421030C94210360
:100090000C9421030C9421030C9421030C94210350
:1000A0000C9421030C9421030C942103D406D6064E
:1000B000E106D806DA06DC06DE06E006E306E5061B
:1000C000E706F206E906EB06ED06EF06F106F40692
:1000D00096079607D407D40710083008020A5B0A6F
:1000E00072085B0A5F095F096C096C096C096C098D
:1000F0006C096C096C096C096C096C096C096C0958
:100100006C096C096C096C097D09A509AA09B1097A
:10011000C909FD0A000B030B060B090B0C0B0F0B97
:10012000FC0F181046108510CE10D110D410D71027
:10013000DA10DD10E010E310E610E910EE10F11017
:10014000F410F910FE1001110411161B1B1B251BC6
:10015000191B1E1B231B211BC325EA258A27EA2501
:100160008A27322655268A27532766271D281D28C9
:100170003028302826283028302830281D281D28EF
:100180002B28302830282B282E004C002A00E10094
:10019000354100001E00140004001D6134004D00B4
:1001A0001F001A0016001B00E1042A0020000800AE
:1001B0000700060050002C0021001500090019005E
:1001C0004F6A4A00220017000A000500000065641B
:1001D000500001530000000F0000E3004F000154E5
:1001E000000000070000E20023001C000B001100CB
:1001F00000002961240018000D00100052004B007F
:1002000025000C000E0036005100280026001200C8
:100210000F0037002F002B002700130033423871E6
:1002200030004E002D0031003468E500015100001F
:100230002900010001000100010000003A001E0237
:10024000200222020100F95C3B001F02210223026E
:100250000100C95C3C002F0226022F000100CA5C8D
:100260003D003002270230000100F85C3E00310200
:10027000350035020000C35C0100010000004C00A5
:100280000000F75C0100010000002A000000C25CD1
:100290003F0056002D0224020000F45C40002400C0
:1002A00021001E00010001004100250022001F0066
:1002B0003700C55C42002600230020002700C65CF2
:1002C000430025022E0231002E00010044004500AB
:1002D0000100010001000000010001000100010017
:1002E0000100000001000100010001000100010007
:1002F00001000100F2000100010001000100F00016
:10030000F1000100F400010001000100F300010010
:10031000F5000100010001000100010000000100E2
:1003200001000100000001000000010001000100C7
:1003300000000100000001000100010001000100B7
:100340000000010001000100F4000100A90001000B
:1003500001000100F600AC00AA00B6000100010097
:10036000F500AB00A8000100010001000100010040
:100370000100010001000100AE00010001000000C9
:100380000000000000000000000001010101010167
:10039000010101020202020202020203030303033B
:1003A0000303040404040405050505050606060602
:1003B0000607070707080808080909090A0A0A0BB7
:1003C0000B0B0C0C0C0D0D0D0E0E0E0F0F10101054
:1003D00011111212131314141515161617171818D5
:1003E00019191A1A1B1C1C1D1D1E1F1F202121223A
:1003F000232324252526272828292A2B2C2C2D2E7B
:100400002F30313132333435363738393A3B3C3D91
:100410003E3F404142434445464748494B4C4D4E80
:100420004F50525354555758595A5C5D5E60616342
:10043000646567686A6B6C6E6F7172747677797ACF
:100440007C7D7F8182848687898B8D8E9092949526
:1004500097999B9D9FA1A2A4A6A8AAACAEB0B2B446
:10046000B6B9BBBDBFC1C3C5C8CACCCED0D3D5D722
:10047000DADCDEE1E3E6E8EAEDEFF2F4F7F9FCFFBF
:1004800005010902A10185020901A100050919015F
:100490002905150025019505750181029501750352
:1004A00081010501093009311581257F9502750803
:1004B000810609381581257F950175088106050C8F
:1004C0000A38021581257F950175088106C0C0058F
:1004D000010980A10185031601002603001A81008D
:1004E0002A8300751095018100C0050C0901A10146
:1004F0008504160100269C021A01002A9C02751030
:1005000095018100C005010906A1018505050719AE
:10051000E029E715002501950875018102050819F4
:100520000129059505750191029501750391010554
:1005300007190029EF1500250195F075018102C00A
:1005400005010906A101050719E029E715002501A4
:100550009508750181029501750881010508190149
:10056000290595057501910295017503910105070E
:10057000190029FF150026FF00950675088100C0A7
:1005800009023B00020100A0FA0904000001030176
:100590000100092111010001224000070581030823
:1005A000000A0904010001030000000921110100F3
:1005B0000122C0000705820320000A120110010079
:1005C000000008EDFE0713010001020301040330DF
:1005D00000000016034500720067006F0044006FC2
:1005E000007800200045005A000000160345007204
:1005F0000067006F0044006F007800200045005A3B
:10060000000000040309040011241FBECFEFDAE04C
:10061000DEBFCDBF13E0A0E0B1E0E4EFFAE502C039
:1006200005900D92AE36B107D9F726E0AEE6B3E0FD
:1006300001C01D92AE30B207E1F70E94DD130C94A9
:10064000782D0C9400008F929F92AF92BF92CF9220
:10065000DF92EF92FF920F931F93CF93DF93CDB76B
:10066000DEB728970FB6F894DEBF0FBECDBFFC01F2
:10067000F080118183819481892B09F453C71F3F36
:1006800021F40FEFF01609F44DC76F0185E0DE018C
:10069000119601900D928A95E1F7F60122818981E8
:1006A0009A81222349F00E94131A082F682F89810A
:1006B0009A810E948C1A03C00E945F1A082F26E0BC
:1006C000129FF001112434E5039FE00DF11D112468
:1006D000EF0DF11DEE0FFF1FE857FE4F059114912E
:1006E000F6018281073FFCE51F07D9F048F4043F7B
:1006F0003CE5130791F0063F9CE5190751F0C0C097
:10070000083FECE51E07A9F0093FFCE51F07E1F1F2
:10071000B7C0882309F406C769C0882309F402C753
:1007200080C0882309F4FEC681E00E9497208CEAED
:1007300032C0882309F4F6C681E00E94972086E53E
:10074000809304068FEF8093050680E88093060669
:10075000609103067091040680910506909106064B
:1007600028960FB6F894DEBF0FBECDBFDF91CF91B4
:100770001F910F91FF90EF90DF90CF90BF90AF90BF
:100780009F908F900C949120882309F4CBC681E030
:100790000E9497208BE1809304068FEF80930506DB
:1007A000D5CF10926F03F60192810A3CFCE51F073A
:1007B00009F459C208F449C1013D2CE5120709F4B6
:1007C00090C240F1053DECE51E0709F4B9C208F4FA
:1007D00080C10D3D8CE5180709F4BDC20E3DECE566
:1007E0001E0709F07EC1992309F49CC628960FB60E
:1007F000F894DEBF0FBECDBFDF91CF911F910F9157
:10080000FF90EF90DF90CF90BF90AF909F908F9030
:100810000C9475190D3C8CE5180729F4992309F4FB
:1008200081C681E019C00E3CECE51E0708F447C103
:100830000F3C3CE5130709F438C208F044C2992381
:1008400009F470C68091030686958695825C8F7345
:10085000833008F4C4C182E028960FB6F894DEBF56
:100860000FBECDBFDF91CF911F910F91FF90EF9001
:10087000DF90CF90BF90AF909F908F900C94972077
:10088000882319F1033E2CE51207C1F050F4013E14
:100890008CE5180781F0023E9CE51907B1F481E070
:1008A00010C0043EECE51E0759F0053EFCE51F07AD
:1008B00061F484E006C010927D0305C082E001C0AF
:1008C00083E080937D030E94122217FF73C0F6011C
:1008D0008281882309F46EC08091B80580936E03ED
:1008E0001092B80580917D03813071F048F082301C
:1008F000D1F08430F1F486EE0E94A82A88E117C076
:1009000082EE0E94BB2A15C085EB9AE00E947F24EC
:1009100088E10E94BB2A88E10E94412A85EA9AE088
:100920000E947F2406C082EE0E94BB2A87E50E94B7
:10093000A82A8FE39CE90197F1F700C00000780135
:10094000E894F7F85CE0A52EB12CC7010A2C02C090
:10095000969587950A94E2F7282F2F7041F0822F01
:1009600090E02A3010F44D9604C0069702C087E24A
:1009700090E00E94A82A94E0A91AB108ECEFAE1604
:10098000EFEFBE0611F780917D03813039F040F022
:10099000823031F0843051F488E206C08CE204C029
:1009A00082EE0E94412A02C00E94A82A80916E0312
:1009B0008093B805003FFCE51F07C1F188F4083DAE
:1009C0003CE51307D9F0093D8CE51807D9F1073D3F
:1009D0009CE5190709F0E5CE26E241EE61EE11C073
:1009E000023FECE51E0751F128F1033F2CE5120709
:1009F00009F0D7CE27E246EE66EE03C027E245EEC9
:100A000065EEC60128960FB6F894DEBF0FBECDBFC7
:100A1000DF91CF911F910F91FF90EF90DF90CF90DA
:100A2000BF90AF909F908F900C94222026E240EED2
:100A300060EEE7CF27E244EE64EEE3CF26E242EE3B
:100A400062EEDFCF28E241E0DBCF033C3CE5130759
:100A500009F4A3C0E0F40531ECE51E0770F40230A0
:100A6000FCE51F0708F07EC101152CE51207F1F126
:100A700001301C4509F47CC010C206318CE5180712
:100A800009F4D7C1023C1C4509F47BC006C2063CF0
:100A9000FCE51F0709F4BEC050F4043C3CE5130715
:100AA00009F496C0053C1C4509F4ADC0F6C1083CEC
:100AB000ECE51E0709F4C1C008F4B5C0CAC00B3C80
:100AC000FCE51F0709F4DBC00C3C1C4509F4E1C040
:100AD000E4C1033D2CE5120709F41FC108F40FC15E
:100AE00021C10C3D1C4509F0D8C12FC1992309F43F
:100AF00019C51092B8050E94192A0FEF14E32CE0D3
:100B0000015010402040E1F700C00000F89481E05F
:100B10008093E00080E28093D8001092C9008FE1BA
:100B20009EE40197F1F700C000001DBA1092680022
:100B30001CBC10BE1FBA10927A0010926E00109268
:100B40006F0010927100109272001092C900109202
:100B5000BC0014B817B81AB81DB810BA1092BC006F
:100B600015B818B81BB81EB811BA0C94003FDAC4F7
:100B7000992309F4D7C48091AC0381608093AC03BE
:100B8000D1C4992309F4CEC49091030681E089274A
:100B90008093030610920601DBCD992309F4C2C4A9
:100BA0008091B8058272D9F028960FB6F894DEBF0E
:100BB0000FBECDBFDF91CF911F910F91FF90EF90AE
:100BC000DF90CF90BF90AF909F908F900C94A72014
:100BD000992309F4A7C48091B805827229F3289655
:100BE0000FB6F894DEBF0FBECDBFDF91CF911F913E
:100BF0000F91FF90EF90DF90CF90BF90AF909F90BC
:100C00008F900C94C520992309F48CC4809104061C
:100C1000885F06C0992309F485C480910406885032
:100C20008093040695CD992309F47CC42091050690
:100C300030E1230F08F42FEF09C0992309F472C49F
:100C40002091050630E1231B08F420E020930506DF
:100C50007FCD992309F466C42091060630E1230F65
:100C600008F42FEF09C0992309F45CC4209106060B
:100C700030E1231B08F420E02093060669CD992378
:100C800009F450C42091070630E1230F08F42FEF38
:100C900009C0992309F446C42091070630E1231BBB
:100CA00008F420E02093070653CD992309F43AC4B1
:100CB0008091030686958695865C8F73823008F452
:100CC0008ECF86E0C9CD992309F42CC48091030608
:100CD00086958695895C8F73853008F480CF89E08E
:100CE000BBCD992309F41EC4809103068695869591
:100CF0008F5C8F73853008F472CF8FE0ADCD992370
:100D000009F410C48091030686958695855D8F73DE
:100D1000823008F464CF85E19FCD992309F402C4A1
:100D200088E19ACD992309F4FDC380910306869545
:100D30008695895D8F73893008F451CF89E18CCD18
:100D4000992309F4EFC383E287CD992309F4EAC319
:100D50001092BB03E7C3992309F4E4C382E08093B4
:100D6000BB03E0C3992309F498C00E946A1981115A
:100D700002C00E94751984E090E00E94D52B90E09B
:100D80009093900380938F03F801E350FC45E23188
:100D9000F10530F4EA5AFF4F80918F030C94452CF3
:100DA00080918F03816027C0826025C0846023C04A
:100DB000806121C080621FC080641DC080681BC02C
:100DC0008460886018C08E7F16C08D7F14C08B7FB2
:100DD00012C08F7E10C08F7D0EC08F7B0CC08F77AE
:100DE0000AC08B7F877F07C087FB222720F991E00D
:100DF000922790FB87F980938F0360918F0384E0A3
:100E000090E00E94E92B1092B80528960FB6F8944E
:100E1000DEBF0FBECDBFDF91CF911F910F91FF902D
:100E2000EF90DF90CF90BF90AF909F908F900C94F9
:100E3000192A8091B805992389F0982F9A7A81E030
:100E400009F480E080937003811102C069E201C05F
:100E500065E38EEB93E00E9432190BC08091700322
:100E6000811102C069E201C065E38EEB93E00E944C
:100E7000071928960FB6F894DEBF0FBECDBFDF91DD
:100E8000CF911F910F91FF90EF90DF90CF90BF9087
:100E9000AF909F908F900C94CD19F6010081118135
:100EA000992349F0C8010E94131AF82E682FC8012F
:100EB0000E948C1A04C0C8010E945F1AF82EB80163
:100EC0008F2D0E946C0B182F382FF601258122954B
:100ED0002F70028101111092530480915104877088
:100EE000A9F0002399F080E2810F883078F082E049
:100EF0002F8338879E830E94581B809151048770EE
:100F0000EE24E3942F8138859E818111E12CA92E56
:100F1000A2944FE0A422B12CFCE0AF16B10408F07B
:100F2000CAC2F501E859FF4F0C94452C892F807FE8
:100F30009F70F92E882319F0F29480EFF822002395
:100F4000B9F0FF2009F448C280E2810F883010F028
:100F5000311106C09091B805F92AF092B80505C084
:100F600090915304F92AF09253040E94CD1934C28F
:100F7000812F38870E94412A3885FF2009F49BC2BF
:100F8000105EF094183010F0311106C09091B80541
:100F9000F922F092B80505C090915304F922F0921D
:100FA00053040E94CD1987C2492F407F892F8F702B
:100FB000403211F08295807F332319F03130E9F00F
:100FC00025C0002381F030915404222351F02130B8
:100FD00041F4982F932B391709F46DC29093540460
:100FE0006AC2832B81C1222319F0213009F463C224
:100FF0008E830E94C7198E817DC1002321F022308B
:1010000008F059C271C1211156C274C1002321F0E8
:10101000222309F469C1E0C1222309F46BC1EEC1A6
:10102000292F26952695237030E02115310521F0D2
:101030002130310559F03FC2002319F0812F937000
:1010400002C080E090E00E94002043C2002319F01B
:10105000812F937002C080E090E00E94EA1F39C2A5
:101060000023F9F0153F51F0163F71F0143FA9F439
:10107000809171039091720381600BC08091710324
:1010800090917203826005C0809171039091720308
:1010900084609093720380937103812F0E94D8170C
:1010A0001EC0153F51F0163F71F0143FA9F4809116
:1010B0007103909172038E7F0BC0809171039091A8
:1010C00072038D7F05C080917103909172038B7FB5
:1010D0009093720380937103812F0E940E170E94D8
:1010E000C818F7C1892F837009F071C00111EFC1D1
:1010F000812F829586958770880F880F412F4F70BA
:1011000050E060E070E04A015B01082E04C0880CEA
:10111000991CAA1CBB1C0A94D2F714FF12C00FE042
:1011200010E020E030E004C0000F111F221F331F29
:101130008A95D2F7B901A8014095509560957095B0
:1011400003C040E050E0BA01969596959370892FC0
:1011500090E082309105E9F08330910579F10091BA
:10116000550410915604209157043091580401976A
:1011700059F0482959296A297B29CB01BA016023F2
:1011800071238223932320C0802A912AA22AB32A82
:1011900015C0482959296A297B29809155049091C5
:1011A0005604A0915704B09158048A019B01082766
:1011B00019272A273B27C901B80106C0CB01BA016C
:1011C000682979298A299B290E94921B80C10023C2
:1011D00019F0892F817001C08695882309F477C1A1
:1011E000812F829586958770880F880F412F4F70C9
:1011F00050E060E070E04A015B01082E04C0880CFA
:10120000991CAA1CBB1C0A94D2F714FF12C00FE051
:1012100010E020E030E004C0000F111F221F331F38
:101220008A95D2F7B901A8014095509560957095BF
:1012300003C040E050E0BA01969596959370892FCF
:1012400090E082309105E9F08330910579F10091C9
:101250004D0410914E0420914F0430915004019799
:1012600059F0482959296A297B29CB01BA01602301
:1012700071238223932320C0802A912AA22AB32A91
:1012800015C0482959296A297B2980914D049091DC
:101290004E04A0914F04B09150048A019B0108278D
:1012A00019272A273B27C901B80106C0CB01BA017B
:1012B000682979298A299B290E94BC1A08C1412FD3
:1012C00050E0FA01E05EF109E531F10508F07FC078
:1012D000EC58FF4F0C94452C1F70892F8F71002301
:1012E00031F00E94711B812F0E94372AE4C00E94B6
:1012F000331B812F0E942C2ADEC0002311F1211103
:10130000DAC0292F2F7181E090E0A0E0B0E0AC01BD
:10131000BD0104C0440F551F661F771F2A95D2F7E1
:1013200080914D0490914E04A0914F04B0915004CF
:101330008A019B01082719272A273B27C901B801E1
:1013400025C0223008F0B7C0DCCF002329F0892F58
:101350008F712EC00023D9F3892F8F710E94331B08
:10136000AAC0002381F0292F2F7181E090E0A0E036
:10137000B0E0BC01CD0104C0660F771F881F991F24
:101380002A95D2F703C060E070E0CB010E94BC1A3E
:1013900092C0002381F0192F1F71812F0E94711BB1
:1013A00028E0129FC0011124836080935104812F93
:1013B0000E94711B80C081E02F830E94581B2F81E7
:1013C000223008F478C082E00E94581B74C00023C9
:1013D00039F0222309F4BBCF812F0E94BB2A6BC0B6
:1013E000222309F4B9CF193349F43FEF83EC99E094
:1013F000315080409040E1F700C00000812F0E94F2
:10140000412A59C0323FB1F028F4303F49F0313F12
:10141000F9F028C0343FB9F058F0353F71F022C0E0
:10142000002309F456C09091090681E0892708C07D
:1014300081E00827009309064CC001114AC081E0F1
:101440008093090646C0011144C01092090641C0AC
:10145000002329F080910806882329F329C022233C
:1014600011F337C0809108062223C1F0882341F090
:101470009091090681E08927809309061092080659
:10148000812F002319F00E94BB2A23C00E94412A09
:1014900086E0F60111928A95E9F71BC08823C9F00E
:1014A000011117C09091090681E0892780930906F0
:1014B000109208060EC0F8E0AF16B10441F04CF0EF
:1014C0001AE0A11AB10822E0A216B10410F40E9499
:1014D0001620EE2039F18091510480FD23C0F601E1
:1014E00012828595859585950E94711BC6010E9483
:1014F00023038091510485958595859528960FB68F
:10150000F894DEBF0FBECDBFDF91CF911F910F9139
:10151000FF90EF90DF90CF90BF90AF909F908F9013
:101520000C94331B28960FB6F894DEBF0FBECDBFC8
:10153000DF91CF911F910F91FF90EF90DF90CF90AF
:10154000BF90AF909F908F900895282F277081E0D3
:1015500090E001C0880F2A95EAF780959091530496
:101560008923809353040C94CD19282F277081E090
:1015700090E001C0880F2A95EAF790915304892BD7
:10158000809353040C94CD19CF93E82F873058F5EE
:101590008091090190910A01892B09F042C0CE2F58
:1015A00080E40E94622290930A0180930901892BB2
:1015B000B1F482E10E943B2290930A0180930901D9
:1015C000892B69F481E090E001C0880FCA95EAF7A1
:1015D00080950E943B2290930A018093090184E93F
:1015E0008093BC001EC090E0FC013797E730F10506
:1015F000C0F4E757FF4F0C94452C209A289811C04F
:10160000219A29980EC0229A2A980BC0239A2B98C7
:1016100008C0529A5A9805C0539A5B9802C03E9AE5
:101620004698CF910895CF93DF93873008F047C055
:101630008091090190910A01892B09F049C080E449
:101640000E94622290930A0180930901892B11F074
:1016500080E031C083E10E943B2290930A01809395
:101660000901892BA9F781E40E94622290930A0163
:1016700080930901892B61F784E88093BC000E9464
:10168000BC18EC019091BC0097FD0EC00E94BC18E4
:101690008C1B9D0B84369105A8F38EEF9FEF9093E2
:1016A0000A0180930901D4CF8091BB0080951092EC
:1016B0000A011092090194E99093BC000AC09FB1FD
:1016C0008FB1807F869586959370892B809501C018
:1016D00080E0DF91CF910895CF93DF9326E0729F52
:1016E000F001112434E5839FE00DF11D1124E60F74
:1016F000F11DEE0FFF1FE857FE4FC591D491CE01AB
:10170000C238D10549F1B0F4C133D10509F464C040
:1017100048F4C932D10509F458C0CA32D10509F4D8
:1017200062C068C0C533D10509F448C0C933D105CA
:1017300099F060C0C33ED10541F138F4C03ED105F7
:1017400091F0C23ED105B1F055C0C63ED10521F1A0
:10175000C73ED10561F14EC020918F0320FD14C218
:1017600021FD12C213C220918F0320FF0FC289E313
:1017700090E00CC220918F0322FF08C280918F035A
:1017800084FDB4C183EE90E001C280918F0382FF9B
:10179000F5CF82EE90E0FAC120918F0323FFF6C1CE
:1017A00080918F0384FDA2C187EE90E0EFC180910C
:1017B0008F0383FFF5CF86EE90E0E8C120918F0381
:1017C00025FFE4C189E290E0E1C120918F0325FF6C
:1017D000DDC185E390E0DAC120918F0326FFD6C1F9
:1017E0008AE290E0D3C120918F0326FFCFC181E32D
:1017F00090E0CCC1C11520E5D20708F047C0C11563
:1018000030E4D30708F034C1C83ED10518F5C03E16
:10181000D10508F0BBC1C83AD10570F4C53AD1056D
:1018200008F0B0C0C130D10509F4B0C108F45EC100
:10183000249708F45BC1AAC1CF3BD10508F4ADC021
:10184000C03CD10508F452C1FE01EE0FFF1FE0506D
:10185000FE4F02C1C11520E2D20760F4C11531E08C
:10186000D30708F093C1C03FD10508F43FC1CE01B2
:1018700090658CC1C11580E3D80708F0F0C0FE0167
:10188000FF70EE0FFF1FE058FC4FE6C0C11595E555
:10189000D90708F044C0C11524E5D20708F000C1FB
:1018A000C11532E5D30710F5C11581E5D80708F059
:1018B000E3C02C2F237081E090E002C0880F991FB5
:1018C0002A95E2F79C689E0174E0369527957A95F3
:1018D000E1F72370922BEC2FEF70E695E69530E25E
:1018E000E39FF00111248E2B9F2B50C18C2F8695E6
:1018F0008695AE0143705527C115D34508F0C1C088
:1019000090E2899F9001112481E090E002C0880F4D
:10191000991F4A95E2F7822B932B9C6837C1C1151A
:101920002AE5D207A0F4C11539E5D30708F0C6C0EF
:10193000C11586E5D80708F4B8C0C11598E5D907E0
:1019400008F4D4C09C2F8827806F906A1FC1C115EE
:101950002BE5D20708F4CAC0CE01C1153CE5D30778
:1019600008F4C1C090568115904208F0BFC08D2F79
:101970008F710E941822FE01FF27F0628F719F0174
:10198000382BAFC0C53AD10509F4B3C0C63AD1056A
:1019900009F0B2C082E890E4F9C0C83AD10509F470
:1019A000AEC0C93AD10509F4ADC0CA3AD10509F4AF
:1019B000ACC0CB3AD10509F4ABC0CC3AD10509F49F
:1019C000AAC0CB3BD10509F4A9C0CC3BD10509F491
:1019D000A8C0CD3AD10509F4A7C0C03BD10509F490
:1019E000A6C0CE3AD10509F4A5C0CF3AD10509F475
:1019F000A4C0C13BD10509F4A3C0C23BD10509F481
:101A0000A2C0C33BD10509F4A1C0C43BD10509F470
:101A1000A0C0C53BD10509F49FC0C63BD10509F460
:101A20009EC0C73BD10509F49DC0C83BD10509F450
:101A30009CC0C93BD10509F49BC0CD3BD10509F43D
:101A40009AC0CE3BD10509F499C0CA3BD10509F42F
:101A500098C080E094E49AC08591949197C09E01CB
:101A60003327C901D3FF02C0986C90C0906C8EC020
:101A7000CE019F70906A8AC09C2F8827816F906AE0
:101A800085C090E2899F9001112481E090E002C01E
:101A9000880F991F4A95E2F7822B932B9A6876C09C
:101AA0009C2F8827846F906A71C08C2F0E94182207
:101AB0008F7190E0982F8827906268C08C2F8F706C
:101AC0000E941822FE0194E0F695E7959A95E1F7B9
:101AD000EF70F0E0FE2FEE27F06A8F70806E9F01AE
:101AE000282BC90153C09927906650C080E090E030
:101AF0004DC081E890E44AC083E890E447C082EE9C
:101B000094E444C089EE94E441C08AEE94E43EC07B
:101B100085EB94E43BC086EB94E438C083EB94E41B
:101B200035C084EB94E432C087EB94E42FC08CEC96
:101B300094E42CC08DEC94E429C083E895E426C09D
:101B40008AE895E423C082E995E420C084E995E41D
:101B50001DC081E296E41AC083E296E417C084E2D5
:101B600096E414C085E296E411C086E296E40EC0C5
:101B700087E296E40BC08FE694E408C080E794E423
:101B800005C08AE296E402C080EE90E0DF91CF913A
:101B9000089580E290E090930A018093090180917A
:101BA0007A03811111C01092B9008CE08093B800C3
:101BB00081E080937A032FEF83ED90E32150804002
:101BC0009040E1F700C0000080E40E946222909300
:101BD0000A0180930901892B09F040C080E00E942E
:101BE0003B2290930A0180930901892BB9F580E08B
:101BF0000E943B2290930A0180930901892B71F581
:101C00008FE30E943B2290930A0180930901892B64
:101C100029F584E98093BC0080E40E9462229093BD
:101C20000A0180930901892BC9F48CE00E943B22B0
:101C300090930A0180930901892B81F480E00E942E
:101C40003B2290930A0180930901892B39F48FE399
:101C50000E943B2290930A018093090184E98093BA
:101C6000BC0080910901089556985E9825982D989A
:101C700026982E9827982F988FEF90E090938900C0
:101C80008093880090938B0080938A0090938D00BE
:101C900080938C00259A2D9A2FEF80E792E02150B7
:101CA00080409040E1F700C00000269A2E9A2FEF66
:101CB00080E792E0215080409040E1F700C00000B2
:101CC000279A2F9A2FEF80E792E021508040904092
:101CD000E1F700C0000025982D982FEF80E792E0F3
:101CE000215080409040E1F700C0000026982E98D7
:101CF0002FEF80E792E0215080409040E1F700C054
:101D0000000027982F9856985E9825982D98269829
:101D10002E9827982F98089584B1807F84B985B133
:101D2000807F85B98AB1837F8AB98BB1837F8BB974
:101D30003E984698089580B38C7080BB81B3836FC2
:101D400081BB08957F928F929F92AF92BF92CF9264
:101D5000DF92EF92FF920F931F93CF93DF931F9227
:101D6000CDB7DEB78091090190910A01892B91F0DE
:101D7000809179038F5F8093790381110BC00E945A
:101D8000C90D90E090930A0180930901892B11F409
:101D90000E94340E01E813E068E8E62E63E0F62EB8
:101DA0006801912C712C57E0A52EA90C892D0E9459
:101DB000C40A8A2D0E94C40A892D0E94130BD601E1
:101DC0009C91981721F08C93BB24B39401C0B12C43
:101DD0008A2D0E94130BF7019081981719F08083C8
:101DE00081E001C080E0B82A7B280E948C0E939489
:101DF000FFEFCF1ADF0A2FEFE21AF20A37E0931251
:101E0000D2CF0E94BC186AEF70E00E941D2C9C018A
:101E1000682F809174038823E9F110927403E09194
:101E20007B03F0917C03DF011E9690E07BEF4AEF8D
:101E3000E42EF12C80818B3FA9F0482F50E06817E9
:101E400028F06901C41AD50AA60106C06701C41AA0
:101E5000D50AA601420F531F4F30510514F070836D
:101E600001C091E03196EA17FB0721F790937403C4
:101E7000711002C0911110C010927303E0907B03A7
:101E8000F0907C0390917403E4E9F3E080E03EE09D
:101E90003E0F32C07110F0CF809173038111ECCFEF
:101EA0006091750370917603809177039091780328
:101EB0000E9466182FB7F894C0905904D0905A0425
:101EC000E0905B04F0905C042FBFC0927503D09249
:101ED0007603E0927703F09278038090FF0590906C
:101EE0000006A0900106B09002062FEF821692061F
:101EF000A206B206D9F43BC0D8012D918D014081D4
:101F0000421749F0D7014C914B3F21F46C93208349
:101F100091E001C081E0BFEFEB1AFB0A31963E135E
:101F2000EBCF9093740380937303BACFAB01BC01E2
:101F3000662777278A019B0100951095209530959B
:101F4000081519052A053B0520F48FEF9FEFDC01EA
:101F500006C0DB01CA01880D991DAA1DBB1D809317
:101F6000FF0590930006A0930106B093020620910E
:101F70000306822F837021F0122F1695169501C04B
:101F800010E0809106018130A1F038F0823009F430
:101F900052C1833009F45AC16AC110921601C0922D
:101FA000FB05D092FC05E092FD05F092FE0581E074
:101FB0004AC18091080118130EC0237030E080914F
:101FC000070190E051E040E02817390709F450E09C
:101FD000852F942F02C081E090E0282F217020935C
:101FE0001801412F50E04531510508F012C1FA01A6
:101FF000E057FF4F0C94452C20911601892B09F4D2
:1020000008C1220F922F990F990FF22EF90E0AE0B4
:102010000F0D013308F000E3F01608F0BBC020E01C
:1020200040E060E08F2D90E00E948F20F394F4CF89
:1020300080911601880F982F990F990FD82ED90EDD
:102040000AE00D0D013308F000E360910406709181
:102050000506809106060E947921F62EE82ED016FC
:1020600008F098C0ED2DF0E0DF01A35CBC4F8C912F
:1020700090911701982341F02E2D4F2D672FCF01FE
:1020800079830E948F207981D394E9CF80911601C2
:10209000B82EBB0C8B2D880F880FB80E0AE00B0DE5
:1020A000013308F000E3D0900506C09006062091A9
:1020B000070630E4329F312D1124B01608F06AC0B3
:1020C000EB2CF12CF701E35CFC4F80819091170120
:1020D0009823C9F0F701EE0FFF1FE252FD4F9081E8
:1020E00092959F7060910406399F600D11247D2D9B
:1020F0008C2D39830E947921462F282F672FC70105
:102100000E948F203981B394D8CF80911601D82EA8
:10211000DD0C8D2D880F880FD80E0AE00D0D0133D0
:1021200008F000E3609107066695669566958091D4
:10213000FB059091FC050E946E21F09006060E941E
:10214000F3208058982F97FD9195990F292F3F2DB7
:10215000239F212D11246091040670910506822F82
:102160000E947921F62EE82ED016A0F4ED2DF0E095
:10217000DF01A35CBC4F8C9190911701982341F033
:102180002E2D4F2D672FCF0179830E948F207981CB
:10219000D394EACF81E00033E8F13BC084ED9CE1C9
:1021A0001AC08CEA9CE117C086E99DE11FC082E855
:1021B0009DE11CC08DE69DE11EC088E59DE11BC030
:1021C00089EA9CE108C08EE99CE105C083E99CE1B5
:1021D00002C08BE79CE10E9421241CC08FE69CE199
:1021E0000AC086E491E202C082E49DE10E94B3232A
:1021F00011C080E39DE10E9422230CC08EE39CE18C
:1022000005C08DE09CE102C08EEC9BE10E94AC22F7
:1022100001C080E0909116019F5F9093160181119B
:1022200026C082E0809306018091180181111FC0B1
:10223000112341F01CC01093080123702093070163
:102240000E94D81D83E08093060111C06091FB05B8
:102250007091FC058091FD059091FE050E94661825
:10226000603171058105910510F010920601872DEE
:102270000F90DF91CF911F910F91FF90EF90DF9022
:10228000CF90BF90AF909F908F907F900895E8ED92
:10229000F0E080818E7F80831092E2001092DA005D
:1022A0001092E100A0EEB0E08C9181608C9380816F
:1022B0008F77808319BCA7EDB0E08C918E7F8C93D3
:1022C00080818F7E80831092BC0308951F920F92AD
:1022D0000FB60F9211242F933F934F935F936F93F9
:1022E0007F938F939F93AF93BF93CF93DF93EF939E
:1022F000FF93C091E900CF708091EC00D82FD1708E
:1023000080FDD0E81092E9008091F000877F8093F3
:10231000F00078940E94DD241092E9008091F00092
:1023200088608093F000CD2BCF70C093E900FF91BF
:10233000EF91DF91CF91BF91AF919F918F917F915D
:102340006F915F914F913F912F910F900FBE0F9022
:102350001F9018952091E4003091E50095E640919A
:10236000EC00842F817040FF22C08091E80080FD46
:102370001CC08091DD05882391F0853091F080911B
:10238000EB0085FD10C04091E4005091E50042173C
:10239000530729F39A01915011F784E0089582E0E0
:1023A000089583E0089581E0089580E008954091C4
:1023B000E80042FFDECF08958091DF0587FF11C05E
:1023C0008091E80082FD05C08091DD058111F8CF84
:1023D00011C08091E8008B770BC08091DD058823C8
:1023E00049F08091E80080FFF8CF8091E8008E7777
:1023F0008093E8000895982F973058F59093E9005E
:10240000981739F07091EC002091ED005091F00098
:1024100003C0242F762F50E021FF19C03091EB002C
:102420003E7F3093EB003091ED003D7F3093ED0027
:102430003091EB0031603093EB007093EC0020930F
:10244000ED005093F0002091EE0027FF07C09F5F42
:10245000D3CF8F708093E90081E0089580E00895E4
:10246000CF92DF92EF92FF920F931F93CF93DF9360
:10247000C8EDD0E088818F7E8883E7EDF0E0808131
:102480008160808384E082BF81E08093BC03888187
:102490008E7F888302EE10E0F80110821092DA003D
:1024A00081EEC82ED12CF601108288818F77888327
:1024B00088818068888388818F7D888319BC109289
:1024C000DD051092DE051092DC051092DB0590EE22
:1024D000E92EF12CF70180818B7F808388818160D8
:1024E000888342E060E080E00E94FB11F601808179
:1024F0008E7F8083F8018081816080838081886005
:102500008083F70180818E7F8083888180618883CA
:10251000DF91CF911F910F91FF90EF90DF90CF90BF
:1025200008951F920F920FB60F9211242F933F938D
:102530004F935F936F937F938F939F93AF93BF93CB
:10254000EF93FF938091E10082FF09C08091E20048
:1025500082FF05C08091E1008B7F8093E100809134
:10256000DA0080FF2AC08091D80080FF26C08091C9
:10257000DA008E7F8093DA008091D90080FF18C046
:1025800080E189BD82E189BD09B400FEFDCF81E013
:102590008093DD058091BC0381110FC00E9447111B
:1025A0000E9430128091E20084608093E20005C0B6
:1025B00019BC1092DD051092BC038091E10080FFF0
:1025C00017C08091E20080FF13C08091E2008E7FEF
:1025D0008093E2008091E20080618093E20080912C
:1025E000D80080628093D80019BC85E08093DD0517
:1025F0008091E10084FF36C08091E20084FF32C008
:1026000080E189BD82E189BD09B400FEFDCF8091E2
:10261000D8008F7D8093D8008091E1008F7E8093D9
:10262000E1008091E2008F7E8093E2008091E200E1
:1026300081608093E2008091DE05882311F084E0C0
:1026400007C08091E30087FD02C081E001C083E004
:102650008093DD051092B8050E94192A0E94162069
:102660001092BD038091E10083FF27C08091E200BA
:1026700083FF23C08091E100877F8093E10082E0A7
:102680008093DD051092DE058091E1008E7F8093BE
:10269000E1008091E2008E7F8093E2008091E20071
:1026A00080618093E20042E060E080E00E94FB11E4
:1026B0008091F00088608093F000FF91EF91BF91CE
:1026C000AF919F918F917F916F915F914F913F91CA
:1026D0002F910F900FBE0F901F9018952091E50538
:1026E0003091E6052617370748F06115710539F472
:1026F0002091E8002E772093E80001C0B90140E066
:1027000061157105A9F12091DD05222309F443C06B
:10271000253009F442C02091E80023FD40C02091FB
:10272000E80022FD32C02091E80020FFE9CF40916F
:10273000F3002091F20030E0342BFC01CF01611551
:10274000710559F02830310540F481918093F100F2
:10275000615071092F5F3F4FF1CF41E028303105C3
:1027600009F040E02091E8002E772093E800C8CFE0
:102770004111C9CF0AC08091DD05882361F0853001
:1027800061F08091E80083FD0AC08091E80082FF3B
:10279000F2CF80E0089582E0089583E0089581E01B
:1027A00008958091BB03811107C08091DD058430BD
:1027B00011F081E0089582E00895CF93DF93CDB7C3
:1027C000DEB72A970FB6F894DEBF0FBECDBF84B731
:1027D000877F84BF0FB6F894A895809160008861C8
:1027E00080936000109260000FBE80E880936100CB
:1027F0001092610085B7806885BF85B7806885BF06
:102800000E9447110E9430128091E2008460809300
:10281000E20078948091DD058823A1F01091E90011
:102820001F709091EC00892F817090FD80E8182B2B
:102830001092E9008091E80083FD0E94DD241F7062
:102840001093E90082E084BD93E095BD9AEF97BDB7
:1028500080936E000E94C90D90E090930A018093CE
:1028600009010E948C0E0E949B0EA1E8B3E0E4E9EE
:10287000F3E01EE0E12EEE0E11921D92EE12FCCF5F
:102880008EE090E00E944B2C80937B0390937C031E
:10289000FC010E962BEF2193E817F907E1F70E9450
:1028A0006A19811102C00E9475190E94421E0E947D
:1028B0006A19811104C00E9475190E94E32088E002
:1028C00090E00E94DD2B60930306709304068093D2
:1028D0000506909306068FE7809307066C7F71F4D8
:1028E0000E94E32088E090E00E94DD2B60930306C5
:1028F0007093040680930506909306068CE090E0A2
:102900000E94D52B90E0A0E0B0E080937D039093EF
:102910007E03A0937F03B093800389EA80938000B5
:1029200089E08093810024982C983F988AB18F7C0D
:102930008AB96E98479A8BB180638BB9769A0E9458
:10294000340E0E946A19811102C00E94751982E03A
:1029500090E00E94D52B8093AC0384E090E00E942D
:10296000D52B90E09093900380938F0383E090E0C9
:102970000E94D52B682F70E080E090E00E94921BAF
:102980008BE091E09093920380939103FF24F39462
:1029900099249A94CC24C394D12C50E1452E62E121
:1029A000562E78E1A72EB12CE0E48E2E8091DD0525
:1029B000853009F046C0F092BD038091DD0584307A
:1029C00009F1109293030FB6F894A895A0926000B5
:1029D0000FBE8092600083B7817F846083BF83B71E
:1029E000816083BF7894889583B78E7F83BF0FB64D
:1029F000F894A8958091600088618093600010929F
:102A000060000FBE8091DC05882309F4CFCF0E94BF
:102A1000C90D90E090930A01809309010E948C0EE9
:102A20000E949B0EE4E9F3E01192EE12FDCF0E94AA
:102A3000A20EE4E9F3E081918111F2C0EE12FBCF26
:102A4000B5CF0E94A20EEDEAF3E0A4E9B3E000E006
:102A500010E0702F6D9121912627B1F180E090E078
:102A600030E0782EA901082E02C0559547950A94AA
:102A7000E2F740FF25C089837A83C60102C0880F30
:102A8000991F7A94E2F73C01862F90E086219721E6
:102A900021E0892B09F420E02B830E94BC1881607F
:102AA000782F9D838C8349815A816B818D810E940F
:102AB000141FF801E355FC4F80816826608219C01D
:102AC00001968630910569F60F5F1F4F0E30110594
:102AD00009F0BFCF9E829F8218860E94BC18816039
:102AE000782F9A8789874E815F8168858A850E94C1
:102AF000141F8091A9039091AA030E9492189C012F
:102B00009091A803992321F02431310508F47CC069
:102B10008091A4031091A50381110BC0111194C0E1
:102B20002091A603211190C02091A70321118CC0F0
:102B30006BC09F3F19F09F5F9093A803181624F471
:102B40000E94B5178093A4038091A40387FF05C05A
:102B50000E94B51781958093A403111624F40E9456
:102B6000B5178093A5038091A50387FF05C00E9438
:102B7000B51781958093A5033091A403332301F108
:102B80002091A5032223E1F045EB3403C001112479
:102B9000892F990F990B009719F08093A40302C015
:102BA000F092A40335EB2303C0011124892F990F60
:102BB000990B009719F08093A50302C0F092A5032A
:102BC0008091A603181624F40E9493178093A603FD
:102BD0008091A60387FF05C00E949317819580937B
:102BE000A6038091A703181624F40E9493178093DC
:102BF000A7038091A70387FF05C00E9493178195C3
:102C00008093A7030E94C8181091AB030E9416205E
:102C1000181709F4CBCE0E9416208093AB03C6CEC2
:102C200049BC59BC09B400FEFDCF8091D8008F7D0E
:102C30008093D8008091E00082608093E0008091D2
:102C4000E00081FDFCCFB2CE9F3F09F074CF7CCF76
:102C50008091BA050895CF93DF9300D01F92CDB72E
:102C6000DEB72091DD05243031F523E0298380583B
:102C700091099B838A8382E08093E9008FEF909192
:102C8000E800815095FD06C095ED9A95F1F700009A
:102C90008111F5CF8091E80085FF0DC040E050E044
:102CA00063E070E0CE0101960E94A6248091E800C6
:102CB0008E778093E8000F900F900F90DF91CF9167
:102CC00008950F931F93CF93DF9300D01F92CDB73A
:102CD000DEB78C010E94D113823011F0843021F5CF
:102CE00084E089831B830A8382E08093E9008FEF6D
:102CF0009091E800815095FD06C095ED9A95F1F709
:102D000000008111F5CF8091E80085FF0DC040E003
:102D100050E063E070E0CE0101960E94A62480910D
:102D2000E8008E778093E8000F900F900F90DF916E
:102D3000CF911F910F910895CF93DF93EC010E94E3
:102D4000D113823011F08430F9F482E08093E900ED
:102D50009FEF8091E800915085FD06C085ED8A9532
:102D6000F1F700009111F5CF8091E80085FF0CC0CC
:102D700040E050E066E070E0CE010E94A624809121
:102D8000E8008E778093E800DF91CF910895CF938C
:102D9000DF93EC010E94D113823011F08430D9F519
:102DA00080911501882339F080918F0387FF03C03C
:102DB00060E282E002C068E081E08093E9008FEF8A
:102DC0009091E800815095FD06C095ED9A95F1F738
:102DD00000008111F5CF8091E80085FF1CC0809133
:102DE0001501811105C040E050E068E070E003C0CB
:102DF00070E040E050E0CE010E94A6248091E800FF
:102E00008E778093E80080E2FE01ABEBB5E00190A5
:102E10000D928A95E1F7DF91CF910895803F39F4C3
:102E20008091A50387FF6CC01092A50369C0813F04
:102E300029F48091A5031816BCF362C09091A403F5
:102E4000823F29F497FF5CC01092A40359C0833FCE
:102E500019F41916CCF354C0893F41F48091A603AC
:102E600018160CF04DC01092A6034AC08A3F29F4F0
:102E70008091A60387FF44C0F6CF8B3F39F4809141
:102E8000A70387FF3DC01092A7033AC08C3F29F4E7
:102E90008091A7031816BCF333C0843F21F48091BE
:102EA000A3038E7F17C0853F21F48091A3038D7FFC
:102EB00011C0863F21F48091A3038B7F0BC0873F15
:102EC00021F48091A303877F05C0883F31F480916E
:102ED000A3038F7E8093A30313C08D3F21F48091C1
:102EE0005D048E7F0BC08E3F21F480915D048D7F49
:102EF00005C08F3F29F480915D048B7F80935D0432
:102F00008091A40381110EC08091A50381110AC094
:102F10008091A603811106C08091A703811102C090
:102F20001092A803089580915D0480FD16C081FD74
:102F300016C082FD18C08091A803882391F08832C2
:102F400090F428E0829FC001112468E270E00E94A2
:102F5000312C862F672B29F007C082E0089584E08A
:102F6000089581E0089588E0089580915D0480FDD2
:102F700017C081FD17C082FD19C08091A803882366
:102F800099F08C3398F423E2829FC00111246CE302
:102F900070E00E94312C862F672B49F481E0089560
:102FA00088E0089581E1089585E0089583E2089519
:102FB000803F21F40E94B517819504C0813F29F418
:102FC0000E94B5178093A5030895823F21F40E94C3
:102FD000B517819504C0833F29F40E94B5178093EB
:102FE000A4030895893F19F40E94931705C08A3FEE
:102FF00031F40E94931781958093A60308958B3F27
:1030000021F40E949317819504C08C3F29F40E94FB
:1030100093178093A7030895843F21F48091A3031D
:10302000816017C0853F21F48091A303826011C0A5
:10303000863F21F48091A30384600BC0873F21F475
:103040008091A303886005C0883F31F48091A30379
:1030500080618093A30308958D3F21F480915D04E6
:1030600081600BC08E3F21F480915D04826005C0B9
:103070008F3F29F480915D04846080935D040895FE
:1030800078941F920F920FB60F9211248F939F93F3
:10309000AF93BF938091590490915A04A0915B041F
:1030A000B0915C040196A11DB11D809359049093C9
:1030B0005A04A0935B04B0935C04BF91AF919F91BD
:1030C0008F910F900FBE0F901F901895CF92DF92A7
:1030D000EF92FF920F931F932FB7F894C09059046B
:1030E000D0905A04E0905B04F0905C042FBF9701ED
:1030F0008601061B170B280B390BC616D706E806E8
:10310000F90618F0C901B80106C0C901B80161503B
:103110007109810991091F910F91FF90EF90DF9044
:10312000CF900895CF92DF92EF92FF920F931F936B
:103130002FB7F8944091590450915A0460915B0460
:1031400070915C042FBF6A017B01EE24FF248C0187
:1031500020E030E0C016D106E206F30610F441503C
:1031600051099A01281B390BC9011F910F91FF903A
:10317000EF90DF90CF9008952FB7F8948091590485
:1031800090915A04A0915B04B0915C042FBF089504
:10319000E0919103F0919203309749F082E080939F
:1031A000A2030480F581E02D82EA93E009950E9454
:1031B000BC189093AA038093A90308951F920F92BD
:1031C0000FB60F9211248F939F93AF93BF9380916B
:1031D0009303811113C08091590490915A04A091D6
:1031E0005B04B0915C044196A11DB11D809359040C
:1031F00090935A04A0935B04B0935C04BF91AF9189
:103200009F918F910F900FBE0F901F901895209156
:103210001501222321F020918F0327FD04C0FC011A
:103220003296089619C0262F2695269526952E317A
:10323000C0F4FC01E20FF11D677081E090E001C075
:10324000880F6A95EAF78095928189238283089591
:103250003196E817F90729F020812613F9CF10825B
:10326000F7CF089520911501222321F020918F039B
:1032700027FD05C0FC0132962FEF30E019C0262F44
:103280002695269526952E3120F5FC01E20FF11D9D
:10329000677081E090E001C0880F6A95EAF792813B
:1032A000892B828308952F3F39F03F5F363041F0FC
:1032B00041914613F8CF0DC04111F7CF232FF5CF21
:1032C0002F3F39F0FC01E20FF11D27FDFA956283D3
:1032D0000895089580E090E00E94E32B21E08D3E68
:1032E0009E4F09F020E0822F08956DEE7EEF80E082
:1032F00090E00E94072C60E082E090E00E94E92BC1
:1033000060E083E090E00E94E92B10925504109257
:103310005604109257041092580460E084E090E044
:103320000E94E92B60E085E090E00E94E92B60E0DC
:1033300086E090E00E94E92B6FEF87E090E00E942A
:10334000E92B40E050E0BA0188E090E00E94FB2BBE
:1033500060E08DE090E00E94E92B40E050E0BA018F
:1033600088E190E00E94FB2B60E087E190E00E9402
:10337000E92B40E050E0BA018FE090E00E94FB2B87
:1033800040E050E0BA0183E190E00C94FB2B809187
:103390005404811110925404089590915304809123
:1033A000B805892B20915204982F922B9093BE033D
:1033B000809154048823D9F0892B8093BE03809197
:1033C0001501882331F080918F0387FF02C08EE1C1
:1033D00001C086E0E0ECF3E090E0815028F021911C
:1033E0002223D9F39F5FF9CF91110E94C719E09171
:1033F0009103F09192033097A9F0809115018823F1
:1034000059F080918F0387FF07C08091BE0380939E
:10341000BF0385E08093BE030280F381E02D8EEB35
:1034200093E009940895BF92CF92DF92EF92FF92BA
:103430000F931F93CF93DF938C01C0905504D090CE
:103440005604E0905704F090580480914D049091F8
:103450004E04A0914F04B0915004C82AD92AEA2AF8
:10346000FB2ACFE1D0E0D701C6010C2E04C0B695EF
:10347000A795979587950A94D2F780FF07C0BC2E31
:10348000B8018C2F0E946C0B019719F4219758F703
:10349000B12C8B2DDF91CF911F910F91FF90EF9069
:1034A000DF90CF90BF900895CF93DF93EC010E94FF
:1034B000131ABE010E946C0BDF91CF910895292F42
:1034C000220F920F990F890F682F66956695669562
:1034D000982F977085E0689FB001112440E050E07C
:1034E00080E0FA01E60FF71FEA5EFB4F208130E033
:1034F000092E02C0369527950A94E2F721703327EA
:10350000042E01C0220F0A94EAF7822B4F5F5F4F0F
:103510004530510531F70895292F220F920F990F49
:10352000890FA82FA695A695A695877051E001C092
:10353000550F8A95EAF785E0A89FD001112420E075
:1035400030E070E0F901EA0FFB1FEA5EFB4F4081BB
:10355000CB01022E02C0969587950A94E2F78170FE
:103560009927819584278523842780832F5F3F4F68
:103570002530310539F708950F931F93AB01BC0136
:10358000CB01AA27BB270097A105B10511F0E0E107
:1035900003C0DB01CA01E0E0092F1A2F2B2F3327CC
:1035A000011511052105310519F0E85FD901C801A0
:1035B0008C019D01F4E03695279517950795FA95AE
:1035C000D1F7011511052105310519F0EC5FD9017D
:1035D000C8018C019D01F2E0369527951795079556
:1035E000FA95D1F7011511052105310519F0EE5FA6
:1035F000D901C801B695A79597958795892B8A2BF0
:103600008B2B09F0EF5F56985E9825982D98269899
:103610002E9827982F988E2F90E0FC013197E73055
:10362000F105A8F4EB55FF4F0C94452C259A2D9AE3
:103630000EC0259A2D9A269A2E9A09C0259A2D9A5F
:1036400004C0259A2D9A269A2E9A279A2F9A40934B
:103650004D0450934E0460934F04709350041F9197
:103660000F910C94FE290F931F9341E050E060E00E
:1036700070E004C0440F551F661F771F8A95D2F76C
:10368000409550956095709580914D0490914E04B1
:10369000A0914F04B09150048A019B010823192383
:1036A0002A233B23C901B8011F910F910C94BC1A26
:1036B000209151048095822380935104982F977014
:1036C00079F430E0482F082E000C550B24173507ED
:1036D00039F08595859585950E94331B109251048C
:1036E00008950F931F9341E050E060E070E004C044
:1036F000440F551F661F771F8A95D2F780914D049E
:1037000090914E04A0914F04B09150048A019B0106
:10371000082B192B2A2B3B2BC901B8011F910F91A4
:103720000C94BC1A6093550470935604809357040C
:10373000909358040C94FE29809115049091E40311
:10374000891719F08F5F8770FBCF0895803391053B
:1037500020F5880F991F880F991FFC01EF5DFE4F20
:1037600052813381808183707181E0E98E9FC00135
:1037700011248C579B4FFC01E70FF11DB497608318
:10378000FC01E50FF11DB4974083830F911DFC01EF
:10379000B497208381E0809383040895FC0130E096
:1037A000D901AA0FBB1FA352BD4F9C91905797FD03
:1037B0009195220F331FD901A252BD4F2C9130E0B9
:1037C00020523109D901AA0FBB1F2A0F3B1F420308
:1037D000D001439FB00D112448E350E09A01291B0A
:1037E000310997FD3395C901220F331FA901480FF5
:1037F000591F64039001659F300D11242A0F3B1F50
:1038000037FF02C021583F4F220F232F221F330BB7
:1038100080910406280F20830895E22FF0E0DF0155
:10382000AA0FBB1FA252BD4F2C9130E0205231098C
:10383000220F331F4203D001439FB00D1124EE0F1E
:10384000FF1FE352FD4F408150E040575109440FA4
:10385000551F64039001659F300D11242A0F3B1FF3
:1038600037FF02C021583F4F220F232F221F330B57
:1038700030910406230FFC01208308950F931F93BA
:10388000E22FF0E0DF01AA0FBB1FA252BD4F0C9147
:1038900010E0005211094003D001419FB00D1124E6
:1038A000EE0FFF1FE352FD4F408150E0405751099A
:1038B00064039001659F300D11242A0F3B1F37FFD1
:1038C00002C021583F4F220F232F221F330B30916C
:1038D0000406230FFC0120831F910F9108950F937D
:1038E00043E0249F9001112435952795200FFC017A
:1038F00020830F910895DC0170E0FB01EE0FFF1FA4
:10390000E252FD4F9081905297FD9195660F771F7F
:10391000FB01E352FD4F809104062081280F241BF8
:10392000920F9C930895DC01E62FF0E0EE0FFF1F4D
:10393000E252FD4F9081941B9C930895DC01E62F89
:10394000F0E0EE0FFF1FE352FD4F9081941B9C931C
:103950000895FC0140830895E62FF0E0EE0FFF1F6D
:10396000E352FD4F208134EE239F212D11246091DD
:10397000060670E030E0245E3F4F241B310937FF1C
:1039800003C031952195310943E0220F331F4A9539
:10399000E1F7AB01421B530B9A0157FF02C020E035
:1039A00030E0FC0122830895E62FF0E0EE0FFF1FC8
:1039B000E352FD4F208134EE239F212D112460918D
:1039C000050670E030E0245E3F4F241B310937FFCD
:1039D00003C031952195310943E0220F331F4A95E9
:1039E000E1F7AB01421B530B9A0157FF02C020E0E5
:1039F00030E0FC0121830895FC01CB01309721F4D4
:103A000077FF2CC080E808959F01F7FF04C02227AC
:103A100033272E1B3F0BBC01621B730B280F391F72
:103A200097FD0DC0CB0145E0880F991F4A95E1F73E
:103A3000B9010E94312C80E2861B682F09C0C901A0
:103A400025E0880F991F2A95E1F70E94312C605AD2
:103A5000862FF7FF02C081950895089580E00895AC
:103A6000EF92FF920F93CF937C01CA01C22FC01B2C
:103A70000E94FC1CC81BF701C083CF910F91FF90DF
:103A8000EF9008950F931F93CF93DF931F92CDB7BD
:103A9000DEB78C01CA0129830E94FC1C2981820F98
:103AA000F80180830F90DF91CF911F910F910895BE
:103AB000EF92FF920F93CF937C01201B909106060B
:103AC000C22FC90FCA010E94FC1CC81BF701C28388
:103AD000CF910F91FF90EF900895EF92FF920F9387
:103AE000CF937C01201B90910506C22FC90FCA01FC
:103AF0000E94FC1CC81BF701C183CF910F91FF905E
:103B0000EF9008950F931F93CF938C01CA01C0913A
:103B10000606C21B0E94FC1C982F880F980FC91B19
:103B2000F801C283CF911F910F9108950F931F93B6
:103B3000CF938C01CA01C0910506C21B0E94FC1CD8
:103B4000982F880F980FC91BF801C183CF911F913F
:103B50000F910895EF92FF921F93CF93DF937B0114
:103B6000182F110FC0E0D0E08C2F8C5D8093E705FB
:103B700020E030E0F901EC0FFD1FEE0DFF1D80810C
:103B8000F901E951FA4F81832F5F3F4F2031310511
:103B900089F761E170E0812F0E948A246096C03924
:103BA000D10511F7DF91CF911F91FF90EF9008950C
:103BB00080918304882351F064E874E084E70E94D4
:103BC000AA1D64E175E087E70E94AA1D1092830494
:103BD0000895E7EEF5E06083418362E070E0880FCE
:103BE0000C948A24CF93DF93C82F4BE06DEF0E9493
:103BF000E91D40E06AE08C2F0E94E91D8FE39CE9FB
:103C00000197F1F700C0000040E060E08C2F0E94B7
:103C1000E91D40E061E08C2F0E94E91D40E066E074
:103C20008C2F0E94E91D40E06DEF8C2F0E94E91D52
:103C3000D0E040E06D2F8C2F0E94E91DDF5FD23174
:103C4000C1F740E06D2F8C2F0E94E91DDF5FD43259
:103C5000C1F740E06D2F8C2F0E94E91DDF5FD43B40
:103C6000C1F74BE06DEF8C2F0E94E91D41E06AE047
:103C70008C2F0E94E91D40E06DEF8C2FDF91CF91DA
:103C80000C94E91D7F928F929F92AF92BF92CF9238
:103C9000DF92EF92FF920F931F93CF93DF931092D7
:103CA000B9008CE08093B80084E70E94F21D87E79A
:103CB0000E94F21DE4E2EE2EE1E0FE2EC12CD12C9A
:103CC000F2E17F2EA8E08A2E912CAA24A394B12C95
:103CD000F7013297608170E0CB0184973196E081E3
:103CE000F0E0B497D7012C9130E024523109D6018D
:103CF000AA0FBB1FAA0FBB1FAF5DBE4FCC91C370F5
:103D0000D0E0AC0197FF02C0495F5F4F63E055957B
:103D100047956A95E1F77C9E80017D9E100D1124E8
:103D2000040F111D025A1B4FB4010E94312CA50132
:103D300002C0440F551F8A95E2F7CA01D8019C9131
:103D4000892B8C93CF01F7FD079653E095958795C6
:103D50005A95E1F77C9E80017D9E100D1124080F7D
:103D6000111D025A1B4FCF01B4010E94312CF501E5
:103D700002C0EE0FFF1F8A95E2F7CF01D8019C9198
:103D8000892B8C93C90137FD079643E0959587955C
:103D90004A95E1F77C9EF0017D9EF00D1124E80F1D
:103DA000F11DE25AFB4FC901B4010E94312C95016B
:103DB00002C0220F331F8A95E2F7C9019081892B37
:103DC00080833FEFC31AD30A44E0E40EF11C50E3B2
:103DD000C516D10409F07CCF81E0809382040EE502
:103DE00014E0C0E0D0E0D8014D918D016C2F84E744
:103DF0000E94E91DFE01E25AFB4F42896C2F87E7C2
:103E00000E94E91D2196C231D10569F7DF91CF915A
:103E10001F910F91FF90EF90DF90CF90BF90AF90E8
:103E20009F908F907F900895EF92FF920F931F9332
:103E3000CF93DF93CDB7DEB767970FB6F894DEBFA9
:103E40000FBECDBF4B8B5C8B6D8B7E8B8F8B0E89AA
:103E50001F8901151105C1F15F3F11F44F3FA1F119
:103E6000E42EF12CA1E0B0E0042E01C0AA0F0A94C8
:103E7000EAF7852F90E0662319F02091090606C025
:103E80009C0126553A4FF90120812A232223A9F0CB
:103E900046E0489F9001499F300D1124F701E20F41
:103EA000F31FEE0FFF1FEF51FE4F40815181FC01C8
:103EB000E655FA4F9081A92B06C0FC01E655FA4F52
:103EC000A0958081A823A08386E0FE013D96DF01B6
:103ED000982F1D929A95E9F74D875E876F87198B0A
:103EE000088BDE01179601900D928A95E1F7CE01BD
:103EF00007960E943428811137C086E0FE0137966C
:103F0000DE01119601900D928A95E1F7FF81E88517
:103F10006A857B856115710539F1EF3F11F4FF3F2B
:103F200019F12091E40330E0C901019687709927C7
:103F30004091150450E08417950779F1F983EA83DD
:103F40007D836C8396E0929FD001939FB00D1124E6
:103F5000AB51BC4FFE01319601900D929A95E1F75D
:103F60008093E4030E949C1B16E0809115049091BD
:103F7000E403891711F1189FC00111248B519C4F44
:103F80000E9434288823C9F08091150490E001969E
:103F90008770992780931504E8CF1092B8050E9486
:103FA000192A1092E40310921504EEEDF3E086E076
:103FB000DF011D928A95E9F7D7CF67960FB6F8947F
:103FC000DEBF0FBECDBFDF91CF911F910F91FF904C
:103FD000EF9008952091A8053091A90582179307C5
:103FE00071F09093A9058093A805E0919103F09159
:103FF0009203309721F00084F185E02D0994089513
:104000002091A6053091A7058217930771F0909330
:10401000A7058093A605E0919103F0919203309754
:1040200021F00680F781E02D09940895E091910335
:10403000F0919203309721F00190F081E02D0994E6
:1040400080E008950F931F93CF93DF93C62FD42F53
:10405000022FFC0182818823C9F060936F030E94C4
:10406000BC189093A5058093A40580E28C0F88303E
:1040700008F050C0C77081E001C0880FCA95EAF708
:10408000DF91CF911F910F910C94372A10916F03FC
:10409000161330C08091A4059091A5050E94921836
:1040A000883C910538F5C0E2CD0F1D17B9F080E2CC
:1040B000810F883040F4177081E001C0880F1A9595
:1040C000EAF70E942C2AC83048F481E09D2F9770AF
:1040D00001C0880F9A95EAF70E94372A802F0E9424
:1040E000A82AC830B8F4D77081E001C0880FDA95EB
:1040F000EAF70AC080E28C0F883060F4C77081E074
:1041000001C0880FCA95EAF7DF91CF911F910F91F7
:104110000C942C2ADF91CF911F910F9108950C944C
:10412000A61BAB01BC0188E090E00C94FB2BE3E004
:10413000F6E0880F880F90819370892B808310920E
:10414000060160817181828193810C94912090910C
:104150000306892F86958695815C8F7393708823DB
:1041600021F0880F880F892B02C0892F80658093EA
:104170000306109206016091030670910406809177
:104180000506909106060C94912090910306892FC4
:10419000869586958F5F8F739370853120F4880F95
:1041A000880F892B02C0892F8460809303061092A8
:1041B00006016091030670910406809105069091B6
:1041C00006060C949120E3E0F6E08DE280831182F4
:1041D0008FEF828383838FE7848360817181828103
:1041E00093810C949120482F982F46FD9095E92FAC
:1041F000EF739F7046FD9F5FE295EF70EE0FF0E06A
:10420000E75EFE4F2181299F802D212D112482956B
:104210008F702295207F822B3081982F930F892FCA
:1042200047FD819580580895BC018230910508F4BE
:104230000895613E8EE1780748F49B0195E036953C
:1042400027959A95E1F748E0420F01C04FEF91E0C2
:10425000242F30E0290F311D35952795229FF0013D
:10426000239FF00DF00D11246E177F0718F44FEF08
:10427000420F05C02F3F310539F091E0920F4917E9
:1042800038F78FEF890F08958FEF08950F931F93DD
:10429000CF938C01C22F67FD6195E8E3F0E0CF0179
:1042A000861B910967FD9395889F9001899F300D2A
:1042B000300D1124449FC001459F900D900D112495
:1042C000820F931F0E941421982F880F980F9C0F24
:1042D000F8019083CF911F910F91089520E030E075
:1042E000A901869F412D969F400D511D1124CA01A1
:1042F0000895CF92DF92EF92FF920F931F93CF9387
:10430000DF937B01282F382FE82FF0E0F11006C053
:10431000E058FC4F6491762F862F7BC00F2D10E064
:1043200046E0649FC0011124CFEFD0E0BE010E949F
:104330001D2CAB016BEA6403C001659F900D112435
:104340008E0D911D8E0D911D982F990F890FBE0115
:10435000601B710B6E9FD0016F9FB00D7E9FB00DE3
:1043600011249B2F8F9DB0011124672F77277E0189
:10437000E61AF70AEE9EB001EF9E700DFE9E700DDC
:1043800011246E01C81AD108C09E7001C19EF00CA4
:10439000D09EF00C11240F2D1127C01BD10BCE9FE6
:1043A0008001CF9F100DDE9F100D1124812F423010
:1043B000510591F04CF441155105E1F041305105A2
:1043C000B9F4822F272F16C04430510569F044F00C
:1043D0004630510579F00CC0822F2B2F912F0AC047
:1043E0002B2F932F872F06C08B2F922F212F02C0A8
:1043F0008B2F972FE22FF0E0E058FC4F7491E82FBD
:10440000F0E0E058FC4F6491E92FF0E0E058FC4FF9
:104410008491DF91CF911F910F91FF90EF90DF90EA
:10442000CF90089560917D038CE090E00C94E92B8F
:1044300090918F0392FF0DC0282F2871283019F416
:10444000877F846006C0282F2471243011F48B7F6D
:10445000886093FF0DC0282F2871283119F4877EBA
:10446000846106C0282F2471243111F48B7E886169
:1044700094FD877E0895CF93DF938093BB0084E8FB
:104480008093BC000E94BC18EC019091BC0097FD89
:104490000AC00E94BC188C1B9D0B84369105A8F3A2
:1044A0008EEF9FEF0CC02091B900287F81E090E053
:1044B000283211F480E090E0919581959109DF9187
:1044C000CF9108950F931F93CF93DF93C82F10922E
:1044D000BC0084EA8093BC000E94BC188C019091BF
:1044E000BC0097FD0AC00E94BC18801B910B84364B
:1044F0009105A8F38EEF9FEF2AC09091B900987FA5
:10450000983041F09091B900987F903119F08FEF79
:104510009FEF1DC0C093BB0084E88093BC000E9445
:10452000BC18EC019091BC0097FD08C00E94BC181B
:104530008C1B9D0B84369105A8F3DCCF8091B900CC
:10454000887F883111F0803411F780E090E0DF91AE
:10455000CF911F910F9108959F92AF92BF92CF92EA
:10456000DF92EF92FF920F931F93CF93DF9300D0D0
:1045700000D0CDB7DEB76C0110911601110F812F5D
:10458000880F880F180F3AE0310F313308F030E30D
:10459000809104068983809105068A8380910606AE
:1045A0008B8360910706669566958091FB059091D7
:1045B000FC053C830E946E21F82E80E48F0D0E9442
:1045C000F32090E8E92EE80E8F2D0E94F32020E8DA
:1045D000922E980E3C81131708F5A12EB12CF501EF
:1045E000E35CFC4F8081909117019823A9F00F2D77
:1045F000212F492D6E2DCE0101963C83F6010995A0
:1046000069817A818B810E947921462F282F672F1B
:10461000C5010E948F203C811F5FDDCF81E03033D8
:1046200008F080E00F900F900F900F90DF91CF91E6
:104630001F910F91FF90EF90DF90CF90BF90AF90C0
:104640009F9008957F928F929F92AF92BF92CF9248
:10465000DF92EF92FF920F931F93CF93DF9300D0DF
:1046600000D0CDB7DEB75C0110911601110F812F7C
:10467000880F880F180F3AE0310F313308F030E31C
:10468000809104068983809105068A8380910606BD
:104690008B836091070666958091FB059091FC05E0
:1046A0003C830E946E21782E3C81131708F045C090
:1046B000812E912CF401E35CFC4F908180911701D5
:1046C0008923C9F1F401EE0FFF1FE352FD4FE08093
:1046D000F12C80E7E81AF108F401EE0FFF1FE25217
:1046E000FD4FC080D12CE0E2CE1AD108EE9CA00193
:1046F000EF9C500D500D1124CC9CC001CD9C900D11
:10470000900D1124840F951F3C830E941421072DC6
:10471000282FA601B701CE010196F50109956981FF
:104720007A818B810E947921462F282F672FC4011F
:104730000E948F203C811F5FB8CF81E0303308F0AA
:1047400080E00F900F900F900F90DF91CF911F910D
:104750000F91FF90EF90DF90CF90BF90AF909F9020
:104760008F907F900895BF92CF92DF92EF92FF9249
:104770000F931F93CF93DF9300D01F92CDB7DEB777
:104780006C0110911601110F812F880F880F180FDF
:104790000AE0010F013308F000E3809104068983E9
:1047A000809105068A83809106068B8360910706B7
:1047B00066958091FB059091FC050E946E21B82EB4
:1047C000101770F5E12EF12CF701E35CFC4F90819E
:1047D00080911701892311F1F701EE0FFF1FE252BB
:1047E000FD4F408150E040525109F701EE0FFF1F8D
:1047F000E352FD4F608170E0605771092B2DCE01AF
:104800000196F601099569817A818B810E9479214F
:10481000462F282F672FC7010E948F201F5FD0CF00
:1048200081E0003308F080E00F900F900F90DF914F
:10483000CF911F910F91FF90EF90DF90CF90BF909D
:104840000895BF92CF92DF92EF92FF920F931F9342
:10485000CF93DF9300D01F92CDB7DEB77C011091CC
:104860001601110F812F880F880F180F0AE0010F12
:10487000013308F000E380910406898380910506E6
:104880008A83809106068B836091070666956695FC
:104890008091FB059091FC050E946E21B82E1017A7
:1048A000E8F4C12ED12CF601E35CFC4F808190919D
:1048B0001701982389F04B2D612FCE010196F70146
:1048C000099569817A818B810E947921462F282F51
:1048D000672FC6010E948F201F5FE1CF81E0003368
:1048E00008F080E00F900F900F90DF91CF911F9113
:1048F0000F91FF90EF90DF90CF90BF900895CF93EE
:10490000DF93EC0180EEFE01099581EEFE01DF915F
:10491000CF9109940F931F93CF93DF938B010E9444
:104920006222C7EED5E009511A4FC017D10741F4F2
:1049300024E92093BC00DF91CF911F910F9108953E
:1049400097FDF6CF89910E943B22EFCFCF92DF9265
:10495000FF920F931F93CF93DF931F92CDB7DEB7D4
:10496000F82E8B0199830E94AA11998181111CC094
:10497000CF2CD92E01151105B1F08091E80085FDED
:104980000AC08091E8008E778093E8000E94AA1107
:10499000882381F309C0F60181916F018093F100B2
:1049A00001501109E7CF80E00F90DF91CF911F9167
:1049B0000F91FF90DF90CF9008951F93CF93DF93D7
:1049C000CDB7DEB7AA970FB6F894DEBF0FBECDBF46
:1049D000EFEDF5E088E08E0F9091F10091938E134A
:1049E000FBCF8091E005833009F460C030F4813062
:1049F00071F0823009F49CC0B3C08A3009F488C0D9
:104A00008B3009F46BC0893009F0AAC020C08091B6
:104A1000DF05813A09F0A4C08091E800877F809388
:104A2000E8008091E3059091E405892B21F460E290
:104A30008BEB95E003C060E080E090E070E00E94C6
:104A40006E138091E8008B778093E80089C0809195
:104A5000DF05813209F084C08091E3059091E4057F
:104A6000029708F07DC08091E800877F8093E8007E
:104A70008091E80082FD05C08091DD058111F8CFAD
:104A80006FC02091F3008091F20090E0922B02978A
:104A900029F48091F1008B7F813021F48091F10025
:104AA0008093BA058091E8008B7756C08091DF052E
:104AB000813A09F055C08091E3059091E405892B76
:104AC00009F04EC08091E800877F8093E8008091D4
:104AD000E80080FFFCCF8091150139C08091DF058F
:104AE0008132F1F58091E3059091E405892BC1F5C0
:104AF0008091E800877F8093E8000E94DC1180911C
:104B0000E105809315011092B8050E94192A28C06A
:104B10008091DF05813221F58091E800877F8093C5
:104B2000E8000E94DC118091E2058093B90518C06D
:104B30008091DF05813AA1F48091E800877F80931E
:104B4000E8008091E80080FFFCCF8091B905809358
:104B5000F1008091E8008E778093E8000E94DC11DC
:104B60008091E80083FFD6C18091DF059091E00538
:104B7000492F50E04A30510508F0CCC1FA01E45504
:104B8000FF4F0C94452C803821F0823809F0C2C1C7
:104B900008C08091DB059091DC05992389F0826043
:104BA0000FC08091E3058F70873008F0B3C1809308
:104BB000E9008091EB0085FB882780F91092E900DD
:104BC0009091E800977F9093E8008093F100109215
:104BD000F10074C1282F2D7F09F09CC1882319F0A2
:104BE000823061F097C18091E105813009F092C176
:104BF000933009F080E08093DC052EC08091E105C0
:104C000081112AC08091E3058F702FEF280F263085
:104C100008F080C18093E9002091EB0020FF1CC0C8
:104C2000933021F48091EB00806214C09091EB00EE
:104C300090619093EB0021E030E0A90102C0440FA5
:104C4000551F8A95E2F74093EA001092EA0080919E
:104C5000EB0088608093EB001092E9008091E800FF
:104C6000877F2FC1811156C11091E1051F77809177
:104C7000E3008078812B8093E3008091E800877FB8
:104C80008093E8000E94DC118091E80080FFFCCF57
:104C90008091E30080688093E300111102C082E0FC
:104CA00001C083E08093DD0535C18058823008F073
:104CB00031C18091E1059091E2058C3D53E095076B
:104CC00079F583E08A838AE289834FB7F894DE011D
:104CD000139620E03EE051E2E32FF0E050935700BE
:104CE000E49120FF03C0E295EF703F5FEF708E2FDD
:104CF00090E0EA3010F0C79601C0C0968D939D9366
:104D00002F5F243149F74FBF8091E800877F809360
:104D1000E8006AE270E0CE0101960E946E13BDC009
:104D20004091E3055091E405292F332723303105C5
:104D3000B9F06CF42130310509F4FBC022303105A3
:104D400009F0E8C08BE390E0E0E8F5E054C02132E0
:104D5000310509F433C02232310509F43CC0DAC010
:104D6000992781309105D1F05CF4892B09F0D2C0EC
:104D7000E3E0F6E0E4918E2F90E0E3E0F6E038C067
:104D80008230910599F0039709F0C4C0EDECF5E08D
:104D9000E4918E2F90E0EDECF5E02AC0EBEEF5E02B
:104DA000E4918E2F90E0EBEEF5E022C0E3EDF5E02C
:104DB000E4918E2F90E0E3EDF5E01AC04115510526
:104DC00009F4BCC04130510509F0A4C089E090E06D
:104DD000EBEAF5E010C04115510509F4B4C04130CB
:104DE000510509F097C080EC90E0E0E8F4E003C0E2
:104DF000009709F48FC02091E800277F2093E800F6
:104E00002091E5053091E6052817390708F4C90116
:104E100040E0009789F12091DD05222309F43DC08F
:104E20002530D9F12091E80023FD37C02091E8001A
:104E300022FD2FC02091E80020FFEBCF4091F3002E
:104E40002091F20030E0342B009759F028303105E2
:104E500040F444914093F100319601972F5F3F4F0A
:104E6000F3CF41E02830310509F040E02091E8001F
:104E70002E772093E800CDCF4111CDCF0AC080918D
:104E8000DD05882351F0853041F08091E80083FDF5
:104E900004C08091E80082FFF2CF8091E8008B7718
:104EA0008093E80037C08038A9F58091E800877FBB
:104EB0008093E8008091DE058093F1008091E80006
:104EC0008E778093E8000E94DC1124C0811122C0FB
:104ED0001091E1051230F0F48091E800877F809313
:104EE000E8001093DE050E94DC11111106C08091CC
:104EF000E30087FD02C081E001C084E08093DD050E
:104F000042E061EC81E00E94FB1142E261EC82E050
:104F10000E94FB118091E80083FF1AC08091E80095
:104F2000877F8093E8008091EB0080628093EB00A4
:104F30000FC082E190E0EBEBF5E05DCF89E090E01F
:104F4000E2E9F5E058CF80E490E0E0E4F5E053CF0B
:104F5000AA960FB6F894DEBF0FBECDBFDF91CF91FA
:104F60001F9108958091E30382958F7009F054C0DA
:104F70008091E003882309F44FC080911504A0912B
:104F8000E4036091DE037091DF034091E1035091EF
:104F9000E203B6E08A1709F43FC090E041155105DD
:104FA000C1F17F3F11F46F3FA1F1B89FF001B99FAC
:104FB000F00D1124EB51FC4F218172132AC0208186
:104FC000621327C02281211124C023813481241738
:104FD000350710F421503109241B350B283C3105CD
:104FE000C0F42091E3032F7020612093E30326E0B7
:104FF000289FF001299FF00D1124E651FC4F80817C
:105000008F70806180838EED93E00E9423030C9467
:105010009C1B01968770BECF08950E94541A292FB9
:105020002F7092959F70E92FF0E03297EE30F105E6
:10503000B8F4EA54FF4F0C94452C803F99F018F4D3
:10504000803E70F40FC0843F59F40CC0803E50F095
:10505000813F31F407C0822F869586958695089505
:1050600080E0089581E00895BF92CF92DF92EF92A1
:10507000FF920F931F93CF93DF93CDB7DEB7619766
:105080000FB6F894DEBF0FBECDBF8C0185E0F801EE
:10509000DE011D9601900D928A95E1F7D8013C91B1
:1050A00011962C9111971296EC9012971396CD9021
:1050B000DC9014975091DE036091DF038091E1034F
:1050C0009091E203009709F44FC16F3F19F45F3FDD
:1050D00009F44AC1B090E003BB2009F4ECC0409150
:1050E000E303C816D90628F0F601E81BF90BCF0137
:1050F00004C0809590958C0D9D1DFF24F394883CF1
:10510000910548F0F12C407F09F09FC08EED93E0AF
:105110000E94230321C1842F807F09F044C06213C1
:1051200012C0531310C0E1100EC04F704061409385
:10513000E3038EED93E00E9423038091E303D80103
:1051400015968C932EC0CD2819F12F3F11F43F3FB7
:10515000F9F0FE2CE1101CC0809115044091E4038D
:1051600056E0841709F458C090E0589FF001599F09
:10517000F00D1124EB51FC4F6181261306C06081B4
:10518000361303C06281611103C001968770E9CFB5
:10519000FE2CEE2009F421C18091E303816080930D
:1051A000E303F12C1AC162130AC0531308C0E110C3
:1051B00006C08091E303D80115968C93B0C03D875B
:1051C0002E878D859E850E940D288823D1F1EE20A3
:1051D000C1F12091E303822F82958F7090E00297B6
:1051E00074F08091DE039091DF0398878F83198696
:1051F000DB86CA862C87CE0107960E94230386E0B1
:10520000F801AEEDB3E001900D928A95E1F70E94AE
:10521000B227FF24F394E1C03D872E878D859E85BC
:105220000E94541A292F22952F7030E02230310528
:105230000CF0C7C09F7009F0C1C0805E883008F4D0
:10524000CCC0C8010E942303E4CF621314C05313DF
:1052500012C0E11010C08091E303F8018583C801FA
:105260000E94230386E0EEEDF3E0DF011D928A95B4
:10527000E9F7FB2CB2C03D872E878D859E850E9465
:105280000D288823F1F2EE20E1F22091E303822F32
:1052900082958F7090E002970CF4B1CF8091DE037D
:1052A0009091DF039A8389831B82DD82CC822E83D7
:1052B000CE010196A2CFC816D90638F0C81AD90A6D
:1052C000B8ECCB16D10450F007C0809590958C0DAA
:1052D0009D1D883C910510F0F12C3EC0FE2CEE2067
:1052E00009F4AFCF621327C0531325C02091E30305
:1052F00020FD18C0822F82958F70482F50E04115F5
:10530000510581F0F80125834F30510541F08F5F41
:10531000982F9295907F822F8F70892B8583C8015B
:105320000E94230386E0F801AEEDB3E001900D92F8
:105330008A95E1F752C03D872E878D859E850E9414
:105340000D2881115CCF8091E30381608093E3039A
:10535000C8010E94230341C0EEEDF3E086E0DF01C7
:105360001D928A95E9F739C0EE2009F46ACF3D878E
:105370002E878D859E850E940D28F82E882309F49E
:1053800060CF86E0F801AEEDB3E001900D928A9512
:10539000E1F78091DE039091DF030E94541A929509
:1053A0009F70963041F48091090691E0892780939F
:1053B0000906909308060E94B2270FC081113DCFC5
:1053C0000CC0243031050CF03CCF9F7009F435CF70
:1053D000F8019581907F09F030CF8F2D61960FB63F
:1053E000F894DEBF0FBECDBFDF91CF911F910F911B
:1053F000FF90EF90DF90CF90BF90089510925304EC
:10540000109252040E94CD19E2EAF3E086E0DF0137
:105410001D928A95E9F71092A80310925D040E94EC
:10542000C81880E090E00E94002080E090E00C949A
:10543000EA1F80911501882331F080918F0387FF47
:1054400002C08EE101C086E0E0ECF3E0DF011D92D6
:105450008A95E9F70C94FE29882341F08095909174
:10546000B80589238093B8050C94CD190895882335
:1054700039F09091B805892B8093B8050C94CD191B
:105480000895882309F463C0823869F40E941620C5
:1054900081FF5DC069E38EEB93E00E9432190E94A8
:1054A000CD1969E30EC0833891F40E94162080FF65
:1054B0004EC063E58EEB93E00E9432190E94CD1935
:1054C00063E58EEB93E00E9407190C94CD198438A4
:1054D00069F40E94162082FF3AC067E48EEB93E0E5
:1054E0000E9432190E94CD1967E4EBCF9CEF980F10
:1054F000913A10F4682FE5CF90E2980F983088F435
:10550000877021E030E0A90102C0440F551F8A9541
:10551000E2F7CA0180959091B80589238093B80578
:10552000D4CF9BE5980F933020F480E090E00C946A
:10553000002098E5980F973120F480E090E00C94DB
:10554000EA1F803F20F00E940E170C94C81808959F
:10555000CF93C82F0E94BB2AC93349F42FEF83ECA5
:1055600099E0215080409040E1F700C000008C2F6E
:10557000CF910C94412A882309F416C18238B1F4E2
:105580000E94162081FD10C169E38EEB93E00E941A
:1055900032190E94CD192FEF41EE54E021504040C6
:1055A0005040E1F700C0000069E317C08338D9F428
:1055B0000E94162080FDF8C063E58EEB93E00E9408
:1055C00032190E94CD198FEF91EE24E08150904066
:1055D0002040E1F700C0000063E58EEB93E00E94FD
:1055E00007190C94CD198438B1F40E94162082FD5D
:1055F000DBC067E48EEB93E00E9432190E94CD1964
:105600004FEF51EE84E0415050408040E1F700C040
:10561000000067E4E2CF9CEF980F913A30F4682FD6
:105620008EEB93E00E943219DCCF90E2980F983015
:1056300080F4877021E030E0A90102C0440F551FBB
:105640008A95E2F7CA019091B805892B8093B80535
:10565000C8CF9BE5980F933070F4853A29F0863ACD
:1056600031F083E890E005C081E890E002C082E874
:1056700090E00C94002098E5980F973108F08EC0C8
:10568000883A09F445C0893A09F445C08A3A09F4D0
:1056900045C08B3A09F445C08C3A09F445C08B3BB0
:1056A00009F445C08C3B09F445C08D3A09F445C066
:1056B000803B09F445C08E3A09F445C08F3A09F49D
:1056C00045C0813B09F445C0823B09F445C0833B9A
:1056D00009F445C0843B09F445C0853B09F445C045
:1056E000863B09F445C0873B09F445C0883B09F473
:1056F00045C0893B09F445C08D3B09F445C08E3B4C
:1057000009F445C08A3B09F445C080E090E044C0FC
:1057100082EE90E041C089EE90E03EC08AEE90E0DB
:105720003BC085EB90E038C086EB90E035C083EB62
:1057300090E032C084EB90E02FC087EB90E02CC06B
:105740008CEC90E029C08DEC90E026C083E891E0DD
:1057500023C08AE891E020C082E991E01DC084E97D
:1057600091E01AC081E292E017C083E292E014C097
:1057700084E292E011C085E292E00EC086E292E0FF
:105780000BC087E292E008C08FE690E005C080E79A
:1057900090E002C08AE292E00C94EA1F803F20F081
:1057A0000E94D8170C94C8180895F999FECF92BD9D
:1057B00081BDF89A992780B50895A6E1B0E044E04C
:1057C00050E00C940F2CA8E1B0E042E050E00C94C3
:1057D0000F2C262FF999FECF92BD81BDF89A019723
:1057E00000B4021639F01FBA20BD0FB6F894FA9A29
:1057F000F99A0FBE08950396272F0E94EA2B0E9464
:10580000E92B252F0E94EA2B242F0C94EA2B0196DA
:10581000272F0E94EA2B0C94E92BDC01CB01FC0121
:10582000F999FECF06C0F2BDE1BDF89A319600B4F9
:105830000D9241505040B8F70895AA1BBB1B51E18F
:1058400007C0AA1FBB1FA617B70710F0A61BB70BF0
:10585000881F991F5A95A9F780959095BC01CD0195
:10586000089597FB072E16F4009407D077FD09D012
:105870000E941D2C07FC05D03EF4909581959F4F0A
:105880000895709561957F4F0895EE0FFF1F059065
:10589000F491E02D0994CF93DF938230910510F4B9
:1058A00082E090E0E0910C06F0910D0620E030E0FF
:1058B000C0E0D0E0309711F140815181481759077D
:1058C000C0F04817590761F482819381209719F03D
:1058D0009B838A832BC090930D0680930C0626C071
:1058E0002115310519F04217530718F49A01BE012A
:1058F000DF01EF010280F381E02DDCCF21153105BE
:1059000009F1281B390B2430310590F412968D9142
:105910009C9113976115710521F0FB01938382839C
:1059200004C090930D0680930C06FD01329644C08E
:10593000FD01E20FF31F81939193225031092D93C2
:105940003C933AC020910A0630910B06232B41F478
:10595000209102013091030130930B0620930A0637
:1059600020910001309101012115310541F42DB73D
:105970003EB74091040150910501241B350BE09185
:105980000A06F0910B06E217F307A0F42E1B3F0B5B
:105990002817390778F0AC014E5F5F4F24173507A1
:1059A00048F04E0F5F1F50930B0640930A068193F9
:1059B000919302C0E0E0F0E0CF01DF91CF91089534
:1059C0000F931F93CF93DF93009709F48CC0FC01D2
:1059D00032971382128200910C0610910D06011568
:1059E000110581F420813181820F931F20910A06D5
:1059F00030910B062817390779F5F0930B06E093E1
:105A00000A0671C0D80140E050E0AE17BF0750F45D
:105A100012962D913C911397AD012115310509F195
:105A2000D901F3CF9D01DA01338322836081718133
:105A3000860F971F8217930769F4EC01288139813B
:105A4000260F371F2E5F3F4F318320838A819B8132
:105A500093838283452B29F4F0930D06E0930C0683
:105A600042C01396FC93EE931297ED014991599120
:105A70009E01240F351FE217F30771F48081918195
:105A8000840F951F029611969C938E938281938129
:105A900013969C938E931297E0E0F0E0D801129653
:105AA0008D919C911397009719F0F8018C01F6CF16
:105AB0008D919C9198012E5F3F4F820F931F2091F3
:105AC0000A0630910B062817390769F4309729F434
:105AD00010920D0610920C0602C0138212821093CF
